{
  "contractName": "diploma",
  "abi": [
    {
      "inputs": [],
      "stateMutability": "nonpayable",
      "type": "constructor"
    },
    {
      "inputs": [],
      "name": "countDiplome",
      "outputs": [
        {
          "internalType": "uint256",
          "name": "",
          "type": "uint256"
        }
      ],
      "stateMutability": "view",
      "type": "function",
      "constant": true
    },
    {
      "inputs": [
        {
          "internalType": "uint256",
          "name": "",
          "type": "uint256"
        }
      ],
      "name": "diplomes",
      "outputs": [
        {
          "internalType": "uint256",
          "name": "idDiplom",
          "type": "uint256"
        },
        {
          "internalType": "string",
          "name": "FullName",
          "type": "string"
        },
        {
          "internalType": "string",
          "name": "cin",
          "type": "string"
        },
        {
          "internalType": "string",
          "name": "cne",
          "type": "string"
        },
        {
          "internalType": "string",
          "name": "dateNaissance",
          "type": "string"
        },
        {
          "internalType": "string",
          "name": "sector",
          "type": "string"
        },
        {
          "internalType": "string",
          "name": "diplomaType",
          "type": "string"
        },
        {
          "internalType": "uint256",
          "name": "session",
          "type": "uint256"
        },
        {
          "internalType": "string",
          "name": "institution",
          "type": "string"
        }
      ],
      "stateMutability": "view",
      "type": "function",
      "constant": true
    },
    {
      "inputs": [
        {
          "internalType": "string",
          "name": "_name",
          "type": "string"
        },
        {
          "internalType": "string",
          "name": "_cin",
          "type": "string"
        },
        {
          "internalType": "string",
          "name": "_cne",
          "type": "string"
        },
        {
          "internalType": "string",
          "name": "_dateNaissance",
          "type": "string"
        },
        {
          "internalType": "string",
          "name": "_sector",
          "type": "string"
        },
        {
          "internalType": "string",
          "name": "_type",
          "type": "string"
        },
        {
          "internalType": "uint256",
          "name": "_session",
          "type": "uint256"
        },
        {
          "internalType": "string",
          "name": "_insti",
          "type": "string"
        }
      ],
      "name": "addDiplome",
      "outputs": [],
      "stateMutability": "nonpayable",
      "type": "function"
    },
    {
      "inputs": [
        {
          "internalType": "uint256",
          "name": "_id",
          "type": "uint256"
        }
      ],
      "name": "searchByid",
      "outputs": [
        {
          "components": [
            {
              "internalType": "uint256",
              "name": "idDiplom",
              "type": "uint256"
            },
            {
              "internalType": "string",
              "name": "FullName",
              "type": "string"
            },
            {
              "internalType": "string",
              "name": "cin",
              "type": "string"
            },
            {
              "internalType": "string",
              "name": "cne",
              "type": "string"
            },
            {
              "internalType": "string",
              "name": "dateNaissance",
              "type": "string"
            },
            {
              "internalType": "string",
              "name": "sector",
              "type": "string"
            },
            {
              "internalType": "string",
              "name": "diplomaType",
              "type": "string"
            },
            {
              "internalType": "uint256",
              "name": "session",
              "type": "uint256"
            },
            {
              "internalType": "string",
              "name": "institution",
              "type": "string"
            }
          ],
          "internalType": "struct diploma.diplome",
          "name": "",
          "type": "tuple"
        }
      ],
      "stateMutability": "view",
      "type": "function",
      "constant": true
    },
    {
      "inputs": [
        {
          "internalType": "string",
          "name": "_cin",
          "type": "string"
        }
      ],
      "name": "searchByCin",
      "outputs": [
        {
          "components": [
            {
              "internalType": "uint256",
              "name": "idDiplom",
              "type": "uint256"
            },
            {
              "internalType": "string",
              "name": "FullName",
              "type": "string"
            },
            {
              "internalType": "string",
              "name": "cin",
              "type": "string"
            },
            {
              "internalType": "string",
              "name": "cne",
              "type": "string"
            },
            {
              "internalType": "string",
              "name": "dateNaissance",
              "type": "string"
            },
            {
              "internalType": "string",
              "name": "sector",
              "type": "string"
            },
            {
              "internalType": "string",
              "name": "diplomaType",
              "type": "string"
            },
            {
              "internalType": "uint256",
              "name": "session",
              "type": "uint256"
            },
            {
              "internalType": "string",
              "name": "institution",
              "type": "string"
            }
          ],
          "internalType": "struct diploma.diplome",
          "name": "",
          "type": "tuple"
        }
      ],
      "stateMutability": "view",
      "type": "function",
      "constant": true
    },
    {
      "inputs": [
        {
          "internalType": "string",
          "name": "_cne",
          "type": "string"
        }
      ],
      "name": "searchByCne",
      "outputs": [
        {
          "components": [
            {
              "internalType": "uint256",
              "name": "idDiplom",
              "type": "uint256"
            },
            {
              "internalType": "string",
              "name": "FullName",
              "type": "string"
            },
            {
              "internalType": "string",
              "name": "cin",
              "type": "string"
            },
            {
              "internalType": "string",
              "name": "cne",
              "type": "string"
            },
            {
              "internalType": "string",
              "name": "dateNaissance",
              "type": "string"
            },
            {
              "internalType": "string",
              "name": "sector",
              "type": "string"
            },
            {
              "internalType": "string",
              "name": "diplomaType",
              "type": "string"
            },
            {
              "internalType": "uint256",
              "name": "session",
              "type": "uint256"
            },
            {
              "internalType": "string",
              "name": "institution",
              "type": "string"
            }
          ],
          "internalType": "struct diploma.diplome",
          "name": "",
          "type": "tuple"
        }
      ],
      "stateMutability": "view",
      "type": "function",
      "constant": true
    },
    {
      "inputs": [
        {
          "internalType": "string",
          "name": "_name",
          "type": "string"
        }
      ],
      "name": "searchByName",
      "outputs": [
        {
          "components": [
            {
              "internalType": "uint256",
              "name": "idDiplom",
              "type": "uint256"
            },
            {
              "internalType": "string",
              "name": "FullName",
              "type": "string"
            },
            {
              "internalType": "string",
              "name": "cin",
              "type": "string"
            },
            {
              "internalType": "string",
              "name": "cne",
              "type": "string"
            },
            {
              "internalType": "string",
              "name": "dateNaissance",
              "type": "string"
            },
            {
              "internalType": "string",
              "name": "sector",
              "type": "string"
            },
            {
              "internalType": "string",
              "name": "diplomaType",
              "type": "string"
            },
            {
              "internalType": "uint256",
              "name": "session",
              "type": "uint256"
            },
            {
              "internalType": "string",
              "name": "institution",
              "type": "string"
            }
          ],
          "internalType": "struct diploma.diplome[]",
          "name": "",
          "type": "tuple[]"
        }
      ],
      "stateMutability": "view",
      "type": "function",
      "constant": true
    },
    {
      "inputs": [
        {
          "internalType": "uint256",
          "name": "_session",
          "type": "uint256"
        }
      ],
      "name": "searchBySession",
      "outputs": [
        {
          "components": [
            {
              "internalType": "uint256",
              "name": "idDiplom",
              "type": "uint256"
            },
            {
              "internalType": "string",
              "name": "FullName",
              "type": "string"
            },
            {
              "internalType": "string",
              "name": "cin",
              "type": "string"
            },
            {
              "internalType": "string",
              "name": "cne",
              "type": "string"
            },
            {
              "internalType": "string",
              "name": "dateNaissance",
              "type": "string"
            },
            {
              "internalType": "string",
              "name": "sector",
              "type": "string"
            },
            {
              "internalType": "string",
              "name": "diplomaType",
              "type": "string"
            },
            {
              "internalType": "uint256",
              "name": "session",
              "type": "uint256"
            },
            {
              "internalType": "string",
              "name": "institution",
              "type": "string"
            }
          ],
          "internalType": "struct diploma.diplome[]",
          "name": "",
          "type": "tuple[]"
        }
      ],
      "stateMutability": "view",
      "type": "function",
      "constant": true
    }
  ],
  "bytecode": "0x60806040526000805534801561001457600080fd5b5033600160006101000a81548173ffffffffffffffffffffffffffffffffffffffff021916908373ffffffffffffffffffffffffffffffffffffffff160217905550612bfc806100656000396000f3fe608060405234801561001057600080fd5b50600436106100875760003560e01c8063768ceb9a1161005b578063768ceb9a1461013a5780637866a88814610172578063bc4dff401461018e578063ddbbc35c146101be57610087565b8062af2e371461008c5780632fec0358146100bc5780633a44df2d146100ec5780635114aeac1461010a575b600080fd5b6100a660048036038101906100a19190612398565b6101ee565b6040516100b391906127b8565b60405180910390f35b6100d660048036038101906100d19190612398565b610677565b6040516100e39190612796565b60405180910390f35b6100f4610bcc565b60405161010191906127da565b60405180910390f35b610124600480360381019061011f91906121fd565b610bd2565b60405161013191906127b8565b60405180910390f35b610154600480360381019061014f9190612398565b6110a6565b604051610169999897969594939291906127f5565b60405180910390f35b61018c6004803603810190610187919061223e565b6114ac565b005b6101a860048036038101906101a391906121fd565b61161d565b6040516101b591906127b8565b60405180910390f35b6101d860048036038101906101d391906121fd565b611af1565b6040516101e59190612796565b60405180910390f35b6101f6612091565b6000600190505b600054811161067057826002600083815260200190815260200160002060000154141561065d5760026000828152602001908152602001600020604051806101200160405290816000820154815260200160018201805461025d90612a96565b80601f016020809104026020016040519081016040528092919081815260200182805461028990612a96565b80156102d65780601f106102ab576101008083540402835291602001916102d6565b820191906000526020600020905b8154815290600101906020018083116102b957829003601f168201915b505050505081526020016002820180546102ef90612a96565b80601f016020809104026020016040519081016040528092919081815260200182805461031b90612a96565b80156103685780601f1061033d57610100808354040283529160200191610368565b820191906000526020600020905b81548152906001019060200180831161034b57829003601f168201915b5050505050815260200160038201805461038190612a96565b80601f01602080910402602001604051908101604052809291908181526020018280546103ad90612a96565b80156103fa5780601f106103cf576101008083540402835291602001916103fa565b820191906000526020600020905b8154815290600101906020018083116103dd57829003601f168201915b5050505050815260200160048201805461041390612a96565b80601f016020809104026020016040519081016040528092919081815260200182805461043f90612a96565b801561048c5780601f106104615761010080835404028352916020019161048c565b820191906000526020600020905b81548152906001019060200180831161046f57829003601f168201915b505050505081526020016005820180546104a590612a96565b80601f01602080910402602001604051908101604052809291908181526020018280546104d190612a96565b801561051e5780601f106104f35761010080835404028352916020019161051e565b820191906000526020600020905b81548152906001019060200180831161050157829003601f168201915b5050505050815260200160068201805461053790612a96565b80601f016020809104026020016040519081016040528092919081815260200182805461056390612a96565b80156105b05780601f10610585576101008083540402835291602001916105b0565b820191906000526020600020905b81548152906001019060200180831161059357829003601f168201915b50505050508152602001600782015481526020016008820180546105d390612a96565b80601f01602080910402602001604051908101604052809291908181526020018280546105ff90612a96565b801561064c5780601f106106215761010080835404028352916020019161064c565b820191906000526020600020905b81548152906001019060200180831161062f57829003601f168201915b505050505081525050915050610672565b808061066890612ac8565b9150506101fd565b505b919050565b6060600080805467ffffffffffffffff8111156106bd577f4e487b7100000000000000000000000000000000000000000000000000000000600052604160045260246000fd5b6040519080825280602002602001820160405280156106f657816020015b6106e3612091565b8152602001906001900390816106db5790505b5090506000600190505b6000548111610bbe578460026000838152602001908152602001600020600701541415610bab5760026000828152602001908152602001600020604051806101200160405290816000820154815260200160018201805461076090612a96565b80601f016020809104026020016040519081016040528092919081815260200182805461078c90612a96565b80156107d95780601f106107ae576101008083540402835291602001916107d9565b820191906000526020600020905b8154815290600101906020018083116107bc57829003601f168201915b505050505081526020016002820180546107f290612a96565b80601f016020809104026020016040519081016040528092919081815260200182805461081e90612a96565b801561086b5780601f106108405761010080835404028352916020019161086b565b820191906000526020600020905b81548152906001019060200180831161084e57829003601f168201915b5050505050815260200160038201805461088490612a96565b80601f01602080910402602001604051908101604052809291908181526020018280546108b090612a96565b80156108fd5780601f106108d2576101008083540402835291602001916108fd565b820191906000526020600020905b8154815290600101906020018083116108e057829003601f168201915b5050505050815260200160048201805461091690612a96565b80601f016020809104026020016040519081016040528092919081815260200182805461094290612a96565b801561098f5780601f106109645761010080835404028352916020019161098f565b820191906000526020600020905b81548152906001019060200180831161097257829003601f168201915b505050505081526020016005820180546109a890612a96565b80601f01602080910402602001604051908101604052809291908181526020018280546109d490612a96565b8015610a215780601f106109f657610100808354040283529160200191610a21565b820191906000526020600020905b815481529060010190602001808311610a0457829003601f168201915b50505050508152602001600682018054610a3a90612a96565b80601f0160208091040260200160405190810160405280929190818152602001828054610a6690612a96565b8015610ab35780601f10610a8857610100808354040283529160200191610ab3565b820191906000526020600020905b815481529060010190602001808311610a9657829003601f168201915b5050505050815260200160078201548152602001600882018054610ad690612a96565b80601f0160208091040260200160405190810160405280929190818152602001828054610b0290612a96565b8015610b4f5780601f10610b2457610100808354040283529160200191610b4f565b820191906000526020600020905b815481529060010190602001808311610b3257829003601f168201915b505050505081525050828481518110610b91577f4e487b7100000000000000000000000000000000000000000000000000000000600052603260045260246000fd5b60200260200101819052508280610ba790612ac8565b9350505b8080610bb690612ac8565b915050610700565b508181528092505050919050565b60005481565b610bda612091565b6000600190505b600054811161109f5782604051602001610bfb9190612768565b6040516020818303038152906040528051906020012060026000838152602001908152602001600020600301604051602001610c37919061277f565b60405160208183030381529060405280519060200120141561108c57600260008281526020019081526020016000206040518061012001604052908160008201548152602001600182018054610c8c90612a96565b80601f0160208091040260200160405190810160405280929190818152602001828054610cb890612a96565b8015610d055780601f10610cda57610100808354040283529160200191610d05565b820191906000526020600020905b815481529060010190602001808311610ce857829003601f168201915b50505050508152602001600282018054610d1e90612a96565b80601f0160208091040260200160405190810160405280929190818152602001828054610d4a90612a96565b8015610d975780601f10610d6c57610100808354040283529160200191610d97565b820191906000526020600020905b815481529060010190602001808311610d7a57829003601f168201915b50505050508152602001600382018054610db090612a96565b80601f0160208091040260200160405190810160405280929190818152602001828054610ddc90612a96565b8015610e295780601f10610dfe57610100808354040283529160200191610e29565b820191906000526020600020905b815481529060010190602001808311610e0c57829003601f168201915b50505050508152602001600482018054610e4290612a96565b80601f0160208091040260200160405190810160405280929190818152602001828054610e6e90612a96565b8015610ebb5780601f10610e9057610100808354040283529160200191610ebb565b820191906000526020600020905b815481529060010190602001808311610e9e57829003601f168201915b50505050508152602001600582018054610ed490612a96565b80601f0160208091040260200160405190810160405280929190818152602001828054610f0090612a96565b8015610f4d5780601f10610f2257610100808354040283529160200191610f4d565b820191906000526020600020905b815481529060010190602001808311610f3057829003601f168201915b50505050508152602001600682018054610f6690612a96565b80601f0160208091040260200160405190810160405280929190818152602001828054610f9290612a96565b8015610fdf5780601f10610fb457610100808354040283529160200191610fdf565b820191906000526020600020905b815481529060010190602001808311610fc257829003601f168201915b505050505081526020016007820154815260200160088201805461100290612a96565b80601f016020809104026020016040519081016040528092919081815260200182805461102e90612a96565b801561107b5780601f106110505761010080835404028352916020019161107b565b820191906000526020600020905b81548152906001019060200180831161105e57829003601f168201915b5050505050815250509150506110a1565b808061109790612ac8565b915050610be1565b505b919050565b60026020528060005260406000206000915090508060000154908060010180546110cf90612a96565b80601f01602080910402602001604051908101604052809291908181526020018280546110fb90612a96565b80156111485780601f1061111d57610100808354040283529160200191611148565b820191906000526020600020905b81548152906001019060200180831161112b57829003601f168201915b50505050509080600201805461115d90612a96565b80601f016020809104026020016040519081016040528092919081815260200182805461118990612a96565b80156111d65780601f106111ab576101008083540402835291602001916111d6565b820191906000526020600020905b8154815290600101906020018083116111b957829003601f168201915b5050505050908060030180546111eb90612a96565b80601f016020809104026020016040519081016040528092919081815260200182805461121790612a96565b80156112645780601f1061123957610100808354040283529160200191611264565b820191906000526020600020905b81548152906001019060200180831161124757829003601f168201915b50505050509080600401805461127990612a96565b80601f01602080910402602001604051908101604052809291908181526020018280546112a590612a96565b80156112f25780601f106112c7576101008083540402835291602001916112f2565b820191906000526020600020905b8154815290600101906020018083116112d557829003601f168201915b50505050509080600501805461130790612a96565b80601f016020809104026020016040519081016040528092919081815260200182805461133390612a96565b80156113805780601f1061135557610100808354040283529160200191611380565b820191906000526020600020905b81548152906001019060200180831161136357829003601f168201915b50505050509080600601805461139590612a96565b80601f01602080910402602001604051908101604052809291908181526020018280546113c190612a96565b801561140e5780601f106113e35761010080835404028352916020019161140e565b820191906000526020600020905b8154815290600101906020018083116113f157829003601f168201915b50505050509080600701549080600801805461142990612a96565b80601f016020809104026020016040519081016040528092919081815260200182805461145590612a96565b80156114a25780601f10611477576101008083540402835291602001916114a2565b820191906000526020600020905b81548152906001019060200180831161148557829003601f168201915b5050505050905089565b6000808154809291906114be90612ac8565b91905055506040518061012001604052806005846114dc91906129f0565b6000546114e9919061299a565b81526020018981526020018881526020018781526020018681526020018581526020018481526020018381526020018281525060026000805481526020019081526020016000206000820151816000015560208201518160010190805190602001906115569291906120dd565b5060408201518160020190805190602001906115739291906120dd565b5060608201518160030190805190602001906115909291906120dd565b5060808201518160040190805190602001906115ad9291906120dd565b5060a08201518160050190805190602001906115ca9291906120dd565b5060c08201518160060190805190602001906115e79291906120dd565b5060e0820151816007015561010082015181600801908051906020019061160f9291906120dd565b509050505050505050505050565b611625612091565b6000600190505b6000548111611aea57826040516020016116469190612768565b6040516020818303038152906040528051906020012060026000838152602001908152602001600020600201604051602001611682919061277f565b604051602081830303815290604052805190602001201415611ad7576002600082815260200190815260200160002060405180610120016040529081600082015481526020016001820180546116d790612a96565b80601f016020809104026020016040519081016040528092919081815260200182805461170390612a96565b80156117505780601f1061172557610100808354040283529160200191611750565b820191906000526020600020905b81548152906001019060200180831161173357829003601f168201915b5050505050815260200160028201805461176990612a96565b80601f016020809104026020016040519081016040528092919081815260200182805461179590612a96565b80156117e25780601f106117b7576101008083540402835291602001916117e2565b820191906000526020600020905b8154815290600101906020018083116117c557829003601f168201915b505050505081526020016003820180546117fb90612a96565b80601f016020809104026020016040519081016040528092919081815260200182805461182790612a96565b80156118745780601f1061184957610100808354040283529160200191611874565b820191906000526020600020905b81548152906001019060200180831161185757829003601f168201915b5050505050815260200160048201805461188d90612a96565b80601f01602080910402602001604051908101604052809291908181526020018280546118b990612a96565b80156119065780601f106118db57610100808354040283529160200191611906565b820191906000526020600020905b8154815290600101906020018083116118e957829003601f168201915b5050505050815260200160058201805461191f90612a96565b80601f016020809104026020016040519081016040528092919081815260200182805461194b90612a96565b80156119985780601f1061196d57610100808354040283529160200191611998565b820191906000526020600020905b81548152906001019060200180831161197b57829003601f168201915b505050505081526020016006820180546119b190612a96565b80601f01602080910402602001604051908101604052809291908181526020018280546119dd90612a96565b8015611a2a5780601f106119ff57610100808354040283529160200191611a2a565b820191906000526020600020905b815481529060010190602001808311611a0d57829003601f168201915b5050505050815260200160078201548152602001600882018054611a4d90612a96565b80601f0160208091040260200160405190810160405280929190818152602001828054611a7990612a96565b8015611ac65780601f10611a9b57610100808354040283529160200191611ac6565b820191906000526020600020905b815481529060010190602001808311611aa957829003601f168201915b505050505081525050915050611aec565b8080611ae290612ac8565b91505061162c565b505b919050565b6060600080805467ffffffffffffffff811115611b37577f4e487b7100000000000000000000000000000000000000000000000000000000600052604160045260246000fd5b604051908082528060200260200182016040528015611b7057816020015b611b5d612091565b815260200190600190039081611b555790505b5090506000600190505b60005481116120835784604051602001611b949190612768565b6040516020818303038152906040528051906020012060026000838152602001908152602001600020600101604051602001611bd0919061277f565b60405160208183030381529060405280519060200120141561207057600260008281526020019081526020016000206040518061012001604052908160008201548152602001600182018054611c2590612a96565b80601f0160208091040260200160405190810160405280929190818152602001828054611c5190612a96565b8015611c9e5780601f10611c7357610100808354040283529160200191611c9e565b820191906000526020600020905b815481529060010190602001808311611c8157829003601f168201915b50505050508152602001600282018054611cb790612a96565b80601f0160208091040260200160405190810160405280929190818152602001828054611ce390612a96565b8015611d305780601f10611d0557610100808354040283529160200191611d30565b820191906000526020600020905b815481529060010190602001808311611d1357829003601f168201915b50505050508152602001600382018054611d4990612a96565b80601f0160208091040260200160405190810160405280929190818152602001828054611d7590612a96565b8015611dc25780601f10611d9757610100808354040283529160200191611dc2565b820191906000526020600020905b815481529060010190602001808311611da557829003601f168201915b50505050508152602001600482018054611ddb90612a96565b80601f0160208091040260200160405190810160405280929190818152602001828054611e0790612a96565b8015611e545780601f10611e2957610100808354040283529160200191611e54565b820191906000526020600020905b815481529060010190602001808311611e3757829003601f168201915b50505050508152602001600582018054611e6d90612a96565b80601f0160208091040260200160405190810160405280929190818152602001828054611e9990612a96565b8015611ee65780601f10611ebb57610100808354040283529160200191611ee6565b820191906000526020600020905b815481529060010190602001808311611ec957829003601f168201915b50505050508152602001600682018054611eff90612a96565b80601f0160208091040260200160405190810160405280929190818152602001828054611f2b90612a96565b8015611f785780601f10611f4d57610100808354040283529160200191611f78565b820191906000526020600020905b815481529060010190602001808311611f5b57829003601f168201915b5050505050815260200160078201548152602001600882018054611f9b90612a96565b80601f0160208091040260200160405190810160405280929190818152602001828054611fc790612a96565b80156120145780601f10611fe957610100808354040283529160200191612014565b820191906000526020600020905b815481529060010190602001808311611ff757829003601f168201915b505050505081525050828481518110612056577f4e487b7100000000000000000000000000000000000000000000000000000000600052603260045260246000fd5b6020026020010181905250828061206c90612ac8565b9350505b808061207b90612ac8565b915050611b7a565b508181528092505050919050565b6040518061012001604052806000815260200160608152602001606081526020016060815260200160608152602001606081526020016060815260200160008152602001606081525090565b8280546120e990612a96565b90600052602060002090601f01602090048101928261210b5760008555612152565b82601f1061212457805160ff1916838001178555612152565b82800160010185558215612152579182015b82811115612151578251825591602001919060010190612136565b5b50905061215f9190612163565b5090565b5b8082111561217c576000816000905550600101612164565b5090565b600061219361218e846128e4565b6128b3565b9050828152602081018484840111156121ab57600080fd5b6121b6848285612a54565b509392505050565b600082601f8301126121cf57600080fd5b81356121df848260208601612180565b91505092915050565b6000813590506121f781612baf565b92915050565b60006020828403121561220f57600080fd5b600082013567ffffffffffffffff81111561222957600080fd5b612235848285016121be565b91505092915050565b600080600080600080600080610100898b03121561225b57600080fd5b600089013567ffffffffffffffff81111561227557600080fd5b6122818b828c016121be565b985050602089013567ffffffffffffffff81111561229e57600080fd5b6122aa8b828c016121be565b975050604089013567ffffffffffffffff8111156122c757600080fd5b6122d38b828c016121be565b965050606089013567ffffffffffffffff8111156122f057600080fd5b6122fc8b828c016121be565b955050608089013567ffffffffffffffff81111561231957600080fd5b6123258b828c016121be565b94505060a089013567ffffffffffffffff81111561234257600080fd5b61234e8b828c016121be565b93505060c061235f8b828c016121e8565b92505060e089013567ffffffffffffffff81111561237c57600080fd5b6123888b828c016121be565b9150509295985092959890939650565b6000602082840312156123aa57600080fd5b60006123b8848285016121e8565b91505092915050565b60006123cd838361256c565b905092915050565b60006123e082612939565b6123ea818561295c565b9350836020820285016123fc85612914565b8060005b85811015612438578484038952815161241985826123c1565b94506124248361294f565b925060208a01995050600181019050612400565b50829750879550505050505092915050565b600061245582612944565b61245f818561296d565b935061246f818560208601612a63565b61247881612b9e565b840191505092915050565b600061248e82612944565b612498818561297e565b93506124a8818560208601612a63565b6124b181612b9e565b840191505092915050565b60006124c782612944565b6124d1818561298f565b93506124e1818560208601612a63565b80840191505092915050565b600081546124fa81612a96565b612504818661298f565b9450600182166000811461251f576001811461253057612563565b60ff19831686528186019350612563565b61253985612924565b60005b8381101561255b5781548189015260018201915060208101905061253c565b838801955050505b50505092915050565b600061012083016000830151612585600086018261274a565b506020830151848203602086015261259d828261244a565b915050604083015184820360408601526125b7828261244a565b915050606083015184820360608601526125d1828261244a565b915050608083015184820360808601526125eb828261244a565b91505060a083015184820360a0860152612605828261244a565b91505060c083015184820360c086015261261f828261244a565b91505060e083015161263460e086018261274a565b5061010083015184820361010086015261264e828261244a565b9150508091505092915050565b600061012083016000830151612674600086018261274a565b506020830151848203602086015261268c828261244a565b915050604083015184820360408601526126a6828261244a565b915050606083015184820360608601526126c0828261244a565b915050608083015184820360808601526126da828261244a565b91505060a083015184820360a08601526126f4828261244a565b91505060c083015184820360c086015261270e828261244a565b91505060e083015161272360e086018261274a565b5061010083015184820361010086015261273d828261244a565b9150508091505092915050565b61275381612a4a565b82525050565b61276281612a4a565b82525050565b600061277482846124bc565b915081905092915050565b600061278b82846124ed565b915081905092915050565b600060208201905081810360008301526127b081846123d5565b905092915050565b600060208201905081810360008301526127d2818461265b565b905092915050565b60006020820190506127ef6000830184612759565b92915050565b60006101208201905061280b600083018c612759565b818103602083015261281d818b612483565b90508181036040830152612831818a612483565b905081810360608301526128458189612483565b905081810360808301526128598188612483565b905081810360a083015261286d8187612483565b905081810360c08301526128818186612483565b905061289060e0830185612759565b8181036101008301526128a38184612483565b90509a9950505050505050505050565b6000604051905081810181811067ffffffffffffffff821117156128da576128d9612b6f565b5b8060405250919050565b600067ffffffffffffffff8211156128ff576128fe612b6f565b5b601f19601f8301169050602081019050919050565b6000819050602082019050919050565b60008190508160005260206000209050919050565b600081519050919050565b600081519050919050565b6000602082019050919050565b600082825260208201905092915050565b600082825260208201905092915050565b600082825260208201905092915050565b600081905092915050565b60006129a582612a4a565b91506129b083612a4a565b9250827fffffffffffffffffffffffffffffffffffffffffffffffffffffffffffffffff038211156129e5576129e4612b11565b5b828201905092915050565b60006129fb82612a4a565b9150612a0683612a4a565b9250817fffffffffffffffffffffffffffffffffffffffffffffffffffffffffffffffff0483118215151615612a3f57612a3e612b11565b5b828202905092915050565b6000819050919050565b82818337600083830152505050565b60005b83811015612a81578082015181840152602081019050612a66565b83811115612a90576000848401525b50505050565b60006002820490506001821680612aae57607f821691505b60208210811415612ac257612ac1612b40565b5b50919050565b6000612ad382612a4a565b91507fffffffffffffffffffffffffffffffffffffffffffffffffffffffffffffffff821415612b0657612b05612b11565b5b600182019050919050565b7f4e487b7100000000000000000000000000000000000000000000000000000000600052601160045260246000fd5b7f4e487b7100000000000000000000000000000000000000000000000000000000600052602260045260246000fd5b7f4e487b7100000000000000000000000000000000000000000000000000000000600052604160045260246000fd5b6000601f19601f8301169050919050565b612bb881612a4a565b8114612bc357600080fd5b5056fea26469706673582212202ee9b457bfa22e6b3562b4b17236327b56eaf5373b8fa4981517ce5924c159ff64736f6c63430008000033",
  "immutableReferences": {},
  "source": "// SPDX-License-Identifier: MIT\r\npragma solidity >=0.7.0 <0.9.0;\r\n\r\ncontract diploma {\r\n    uint public countDiplome = 0;\r\n    address owner;\r\n    // string value;\r\n    // State public myState;\r\n    struct diplome {\r\n        uint idDiplom;\r\n        string FullName;\r\n        string cin;\r\n        string cne;\r\n        string dateNaissance;\r\n        string sector;\r\n        string diplomaType;\r\n        uint session;\r\n        string institution;\r\n    }\r\n\r\n    // modifier onlyOwner() {\r\n    //     require(msg.sender == owner);\r\n    //     _;\r\n    // }\r\n    mapping(uint => diplome) public diplomes;\r\n\r\n    constructor() {\r\n        owner = msg.sender;\r\n    }\r\n\r\n    function addDiplome(\r\n        string memory _name,\r\n        string memory _cin,\r\n        string memory _cne,\r\n        string memory _dateNaissance,\r\n        string memory _sector,\r\n        string memory _type,\r\n        uint _session,\r\n        string memory _insti\r\n    ) public {\r\n        countDiplome++;\r\n        diplomes[countDiplome] = diplome(\r\n            countDiplome + _session * 5,\r\n            _name,\r\n            _cin,\r\n            _cne,\r\n            _dateNaissance,\r\n            _sector,\r\n            _type,\r\n            _session,\r\n            _insti\r\n        );\r\n    }\r\n\r\n    function searchByid(uint _id) public view returns (diplome memory) {\r\n        for (uint i = 1; i <= countDiplome; i++) {\r\n            if (diplomes[i].idDiplom == _id) {\r\n                return diplomes[i];\r\n            }\r\n        }\r\n    }\r\n\r\n    function searchByCin(\r\n        string memory _cin\r\n    ) public view returns (diplome memory) {\r\n        for (uint i = 1; i <= countDiplome; i++) {\r\n            if (\r\n                keccak256(abi.encodePacked(diplomes[i].cin)) ==\r\n                keccak256(abi.encodePacked(_cin))\r\n            ) {\r\n                return diplomes[i];\r\n            }\r\n        }\r\n    }\r\n\r\n    function searchByCne(\r\n        string memory _cne\r\n    ) public view returns (diplome memory) {\r\n        for (uint i = 1; i <= countDiplome; i++) {\r\n            if (\r\n                keccak256(abi.encodePacked(diplomes[i].cne)) ==\r\n                keccak256(abi.encodePacked(_cne))\r\n            ) {\r\n                return diplomes[i];\r\n            }\r\n        }\r\n    }\r\n\r\n    function searchByName(\r\n        string memory _name\r\n    ) public view returns (diplome[] memory) {\r\n        uint count = 0;\r\n        diplome[] memory twinsDiplome = new diplome[](countDiplome);\r\n        for (uint i = 1; i <= countDiplome; i++) {\r\n            if (\r\n                keccak256(abi.encodePacked(diplomes[i].FullName)) ==\r\n                keccak256(abi.encodePacked(_name))\r\n            ) {\r\n                twinsDiplome[count] = diplomes[i];\r\n                count++;\r\n            }\r\n        }\r\n        assembly {\r\n            mstore(twinsDiplome, count)\r\n        }\r\n        return twinsDiplome;\r\n    }\r\n\r\n    function searchBySession(\r\n        uint _session\r\n    ) public view returns (diplome[] memory) {\r\n        uint count = 0;\r\n        diplome[] memory twinsDiplome = new diplome[](countDiplome);\r\n        for (uint i = 1; i <= countDiplome; i++) {\r\n            if (diplomes[i].session == _session) {\r\n                twinsDiplome[count] = diplomes[i];\r\n                count++;\r\n            }\r\n        }\r\n        assembly {\r\n            mstore(twinsDiplome, count)\r\n        }\r\n        return twinsDiplome;\r\n    }\r\n}\r\n",
  "sourcePath": "C:\\Users\\amal\\Desktop\\PFE\\projectv1\\contracts\\Diplomes.sol",
  "compiler": {
    "name": "solc",
    "version": "0.8.0+commit.c7dfd78e.Emscripten.clang"
  },
  "schemaVersion": "3.4.13",
  "updatedAt": "2023-05-15T21:49:38.965Z",
  "networkType": "ethereum",
  "devdoc": {
    "kind": "dev",
    "methods": {},
    "version": 1
  },
  "userdoc": {
    "kind": "user",
    "methods": {},
    "version": 1
  }
}