{
  "contractName": "Diplomes",
  "abi": [
    {
      "inputs": [],
      "stateMutability": "nonpayable",
      "type": "constructor"
    },
    {
      "inputs": [],
      "name": "countDiplome",
      "outputs": [
        {
          "internalType": "uint256",
          "name": "",
          "type": "uint256"
        }
      ],
      "stateMutability": "view",
      "type": "function",
      "constant": true
    },
    {
      "inputs": [
        {
          "internalType": "uint256",
          "name": "",
          "type": "uint256"
        }
      ],
      "name": "diplomes",
      "outputs": [
        {
          "internalType": "uint256",
          "name": "idDiplom",
          "type": "uint256"
        },
        {
          "internalType": "string",
          "name": "FullName",
          "type": "string"
        },
        {
          "internalType": "string",
          "name": "cin",
          "type": "string"
        },
        {
          "internalType": "string",
          "name": "cne",
          "type": "string"
        },
        {
          "internalType": "string",
          "name": "dateNaissance",
          "type": "string"
        },
        {
          "internalType": "string",
          "name": "sector",
          "type": "string"
        },
        {
          "internalType": "string",
          "name": "diplomaType",
          "type": "string"
        },
        {
          "internalType": "uint256",
          "name": "session",
          "type": "uint256"
        },
        {
          "internalType": "string",
          "name": "institution",
          "type": "string"
        }
      ],
      "stateMutability": "view",
      "type": "function",
      "constant": true
    },
    {
      "inputs": [
        {
          "internalType": "string",
          "name": "_cin",
          "type": "string"
        }
      ],
      "name": "checkDiplome",
      "outputs": [
        {
          "internalType": "bool",
          "name": "",
          "type": "bool"
        }
      ],
      "stateMutability": "view",
      "type": "function",
      "constant": true
    },
    {
      "inputs": [
        {
          "internalType": "string",
          "name": "_name",
          "type": "string"
        },
        {
          "internalType": "string",
          "name": "_cin",
          "type": "string"
        },
        {
          "internalType": "string",
          "name": "_cne",
          "type": "string"
        },
        {
          "internalType": "string",
          "name": "_dateNaissance",
          "type": "string"
        },
        {
          "internalType": "string",
          "name": "_sector",
          "type": "string"
        },
        {
          "internalType": "string",
          "name": "_type",
          "type": "string"
        },
        {
          "internalType": "uint256",
          "name": "_session",
          "type": "uint256"
        },
        {
          "internalType": "string",
          "name": "_insti",
          "type": "string"
        }
      ],
      "name": "addDiplome",
      "outputs": [],
      "stateMutability": "nonpayable",
      "type": "function"
    },
    {
      "inputs": [
        {
          "internalType": "uint256",
          "name": "_id",
          "type": "uint256"
        }
      ],
      "name": "searchByid",
      "outputs": [
        {
          "components": [
            {
              "internalType": "uint256",
              "name": "idDiplom",
              "type": "uint256"
            },
            {
              "internalType": "string",
              "name": "FullName",
              "type": "string"
            },
            {
              "internalType": "string",
              "name": "cin",
              "type": "string"
            },
            {
              "internalType": "string",
              "name": "cne",
              "type": "string"
            },
            {
              "internalType": "string",
              "name": "dateNaissance",
              "type": "string"
            },
            {
              "internalType": "string",
              "name": "sector",
              "type": "string"
            },
            {
              "internalType": "string",
              "name": "diplomaType",
              "type": "string"
            },
            {
              "internalType": "uint256",
              "name": "session",
              "type": "uint256"
            },
            {
              "internalType": "string",
              "name": "institution",
              "type": "string"
            }
          ],
          "internalType": "struct Diplomes.diplome",
          "name": "",
          "type": "tuple"
        }
      ],
      "stateMutability": "view",
      "type": "function",
      "constant": true
    },
    {
      "inputs": [
        {
          "internalType": "string",
          "name": "_cin",
          "type": "string"
        }
      ],
      "name": "searchByCin",
      "outputs": [
        {
          "components": [
            {
              "internalType": "uint256",
              "name": "idDiplom",
              "type": "uint256"
            },
            {
              "internalType": "string",
              "name": "FullName",
              "type": "string"
            },
            {
              "internalType": "string",
              "name": "cin",
              "type": "string"
            },
            {
              "internalType": "string",
              "name": "cne",
              "type": "string"
            },
            {
              "internalType": "string",
              "name": "dateNaissance",
              "type": "string"
            },
            {
              "internalType": "string",
              "name": "sector",
              "type": "string"
            },
            {
              "internalType": "string",
              "name": "diplomaType",
              "type": "string"
            },
            {
              "internalType": "uint256",
              "name": "session",
              "type": "uint256"
            },
            {
              "internalType": "string",
              "name": "institution",
              "type": "string"
            }
          ],
          "internalType": "struct Diplomes.diplome",
          "name": "",
          "type": "tuple"
        }
      ],
      "stateMutability": "view",
      "type": "function",
      "constant": true
    },
    {
      "inputs": [
        {
          "internalType": "string",
          "name": "_cne",
          "type": "string"
        }
      ],
      "name": "searchByCne",
      "outputs": [
        {
          "components": [
            {
              "internalType": "uint256",
              "name": "idDiplom",
              "type": "uint256"
            },
            {
              "internalType": "string",
              "name": "FullName",
              "type": "string"
            },
            {
              "internalType": "string",
              "name": "cin",
              "type": "string"
            },
            {
              "internalType": "string",
              "name": "cne",
              "type": "string"
            },
            {
              "internalType": "string",
              "name": "dateNaissance",
              "type": "string"
            },
            {
              "internalType": "string",
              "name": "sector",
              "type": "string"
            },
            {
              "internalType": "string",
              "name": "diplomaType",
              "type": "string"
            },
            {
              "internalType": "uint256",
              "name": "session",
              "type": "uint256"
            },
            {
              "internalType": "string",
              "name": "institution",
              "type": "string"
            }
          ],
          "internalType": "struct Diplomes.diplome",
          "name": "",
          "type": "tuple"
        }
      ],
      "stateMutability": "view",
      "type": "function",
      "constant": true
    },
    {
      "inputs": [
        {
          "internalType": "string",
          "name": "_name",
          "type": "string"
        }
      ],
      "name": "searchByName",
      "outputs": [
        {
          "components": [
            {
              "internalType": "uint256",
              "name": "idDiplom",
              "type": "uint256"
            },
            {
              "internalType": "string",
              "name": "FullName",
              "type": "string"
            },
            {
              "internalType": "string",
              "name": "cin",
              "type": "string"
            },
            {
              "internalType": "string",
              "name": "cne",
              "type": "string"
            },
            {
              "internalType": "string",
              "name": "dateNaissance",
              "type": "string"
            },
            {
              "internalType": "string",
              "name": "sector",
              "type": "string"
            },
            {
              "internalType": "string",
              "name": "diplomaType",
              "type": "string"
            },
            {
              "internalType": "uint256",
              "name": "session",
              "type": "uint256"
            },
            {
              "internalType": "string",
              "name": "institution",
              "type": "string"
            }
          ],
          "internalType": "struct Diplomes.diplome[]",
          "name": "",
          "type": "tuple[]"
        }
      ],
      "stateMutability": "view",
      "type": "function",
      "constant": true
    },
    {
      "inputs": [
        {
          "internalType": "uint256",
          "name": "_session",
          "type": "uint256"
        }
      ],
      "name": "searchBySession",
      "outputs": [
        {
          "components": [
            {
              "internalType": "uint256",
              "name": "idDiplom",
              "type": "uint256"
            },
            {
              "internalType": "string",
              "name": "FullName",
              "type": "string"
            },
            {
              "internalType": "string",
              "name": "cin",
              "type": "string"
            },
            {
              "internalType": "string",
              "name": "cne",
              "type": "string"
            },
            {
              "internalType": "string",
              "name": "dateNaissance",
              "type": "string"
            },
            {
              "internalType": "string",
              "name": "sector",
              "type": "string"
            },
            {
              "internalType": "string",
              "name": "diplomaType",
              "type": "string"
            },
            {
              "internalType": "uint256",
              "name": "session",
              "type": "uint256"
            },
            {
              "internalType": "string",
              "name": "institution",
              "type": "string"
            }
          ],
          "internalType": "struct Diplomes.diplome[]",
          "name": "",
          "type": "tuple[]"
        }
      ],
      "stateMutability": "view",
      "type": "function",
      "constant": true
    }
  ],
  "bytecode": "0x60806040526000805534801561001457600080fd5b5033600160006101000a81548173ffffffffffffffffffffffffffffffffffffffff021916908373ffffffffffffffffffffffffffffffffffffffff160217905550612ebb806100656000396000f3fe608060405234801561001057600080fd5b50600436106100925760003560e01c8063768ceb9a11610066578063768ceb9a146101455780637866a8881461017d578063bc4dff4014610199578063bcf998b9146101c9578063ddbbc35c146101f957610092565b8062af2e37146100975780632fec0358146100c75780633a44df2d146100f75780635114aeac14610115575b600080fd5b6100b160048036038101906100ac9190612561565b610229565b6040516100be9190612a6b565b60405180910390f35b6100e160048036038101906100dc9190612561565b6106b2565b6040516100ee91906129ee565b60405180910390f35b6100ff610c07565b60405161010c9190612a8d565b60405180910390f35b61012f600480360381019061012a91906123c6565b610c0d565b60405161013c9190612a6b565b60405180910390f35b61015f600480360381019061015a9190612561565b6110e1565b60405161017499989796959493929190612aa8565b60405180910390f35b61019760048036038101906101929190612407565b6114e7565b005b6101b360048036038101906101ae91906123c6565b611744565b6040516101c09190612a6b565b60405180910390f35b6101e360048036038101906101de91906123c6565b611c18565b6040516101f09190612a10565b60405180910390f35b610213600480360381019061020e91906123c6565b611cba565b60405161022091906129ee565b60405180910390f35b61023161225a565b6000600190505b60005481116106ab5782600260008381526020019081526020016000206000015414156106985760026000828152602001908152602001600020604051806101200160405290816000820154815260200160018201805461029890612d55565b80601f01602080910402602001604051908101604052809291908181526020018280546102c490612d55565b80156103115780601f106102e657610100808354040283529160200191610311565b820191906000526020600020905b8154815290600101906020018083116102f457829003601f168201915b5050505050815260200160028201805461032a90612d55565b80601f016020809104026020016040519081016040528092919081815260200182805461035690612d55565b80156103a35780601f10610378576101008083540402835291602001916103a3565b820191906000526020600020905b81548152906001019060200180831161038657829003601f168201915b505050505081526020016003820180546103bc90612d55565b80601f01602080910402602001604051908101604052809291908181526020018280546103e890612d55565b80156104355780601f1061040a57610100808354040283529160200191610435565b820191906000526020600020905b81548152906001019060200180831161041857829003601f168201915b5050505050815260200160048201805461044e90612d55565b80601f016020809104026020016040519081016040528092919081815260200182805461047a90612d55565b80156104c75780601f1061049c576101008083540402835291602001916104c7565b820191906000526020600020905b8154815290600101906020018083116104aa57829003601f168201915b505050505081526020016005820180546104e090612d55565b80601f016020809104026020016040519081016040528092919081815260200182805461050c90612d55565b80156105595780601f1061052e57610100808354040283529160200191610559565b820191906000526020600020905b81548152906001019060200180831161053c57829003601f168201915b5050505050815260200160068201805461057290612d55565b80601f016020809104026020016040519081016040528092919081815260200182805461059e90612d55565b80156105eb5780601f106105c0576101008083540402835291602001916105eb565b820191906000526020600020905b8154815290600101906020018083116105ce57829003601f168201915b505050505081526020016007820154815260200160088201805461060e90612d55565b80601f016020809104026020016040519081016040528092919081815260200182805461063a90612d55565b80156106875780601f1061065c57610100808354040283529160200191610687565b820191906000526020600020905b81548152906001019060200180831161066a57829003601f168201915b5050505050815250509150506106ad565b80806106a390612d87565b915050610238565b505b919050565b6060600080805467ffffffffffffffff8111156106f8577f4e487b7100000000000000000000000000000000000000000000000000000000600052604160045260246000fd5b60405190808252806020026020018201604052801561073157816020015b61071e61225a565b8152602001906001900390816107165790505b5090506000600190505b6000548111610bf9578460026000838152602001908152602001600020600701541415610be65760026000828152602001908152602001600020604051806101200160405290816000820154815260200160018201805461079b90612d55565b80601f01602080910402602001604051908101604052809291908181526020018280546107c790612d55565b80156108145780601f106107e957610100808354040283529160200191610814565b820191906000526020600020905b8154815290600101906020018083116107f757829003601f168201915b5050505050815260200160028201805461082d90612d55565b80601f016020809104026020016040519081016040528092919081815260200182805461085990612d55565b80156108a65780601f1061087b576101008083540402835291602001916108a6565b820191906000526020600020905b81548152906001019060200180831161088957829003601f168201915b505050505081526020016003820180546108bf90612d55565b80601f01602080910402602001604051908101604052809291908181526020018280546108eb90612d55565b80156109385780601f1061090d57610100808354040283529160200191610938565b820191906000526020600020905b81548152906001019060200180831161091b57829003601f168201915b5050505050815260200160048201805461095190612d55565b80601f016020809104026020016040519081016040528092919081815260200182805461097d90612d55565b80156109ca5780601f1061099f576101008083540402835291602001916109ca565b820191906000526020600020905b8154815290600101906020018083116109ad57829003601f168201915b505050505081526020016005820180546109e390612d55565b80601f0160208091040260200160405190810160405280929190818152602001828054610a0f90612d55565b8015610a5c5780601f10610a3157610100808354040283529160200191610a5c565b820191906000526020600020905b815481529060010190602001808311610a3f57829003601f168201915b50505050508152602001600682018054610a7590612d55565b80601f0160208091040260200160405190810160405280929190818152602001828054610aa190612d55565b8015610aee5780601f10610ac357610100808354040283529160200191610aee565b820191906000526020600020905b815481529060010190602001808311610ad157829003601f168201915b5050505050815260200160078201548152602001600882018054610b1190612d55565b80601f0160208091040260200160405190810160405280929190818152602001828054610b3d90612d55565b8015610b8a5780601f10610b5f57610100808354040283529160200191610b8a565b820191906000526020600020905b815481529060010190602001808311610b6d57829003601f168201915b505050505081525050828481518110610bcc577f4e487b7100000000000000000000000000000000000000000000000000000000600052603260045260246000fd5b60200260200101819052508280610be290612d87565b9350505b8080610bf190612d87565b91505061073b565b508181528092505050919050565b60005481565b610c1561225a565b6000600190505b60005481116110da5782604051602001610c3691906129c0565b6040516020818303038152906040528051906020012060026000838152602001908152602001600020600301604051602001610c7291906129d7565b6040516020818303038152906040528051906020012014156110c757600260008281526020019081526020016000206040518061012001604052908160008201548152602001600182018054610cc790612d55565b80601f0160208091040260200160405190810160405280929190818152602001828054610cf390612d55565b8015610d405780601f10610d1557610100808354040283529160200191610d40565b820191906000526020600020905b815481529060010190602001808311610d2357829003601f168201915b50505050508152602001600282018054610d5990612d55565b80601f0160208091040260200160405190810160405280929190818152602001828054610d8590612d55565b8015610dd25780601f10610da757610100808354040283529160200191610dd2565b820191906000526020600020905b815481529060010190602001808311610db557829003601f168201915b50505050508152602001600382018054610deb90612d55565b80601f0160208091040260200160405190810160405280929190818152602001828054610e1790612d55565b8015610e645780601f10610e3957610100808354040283529160200191610e64565b820191906000526020600020905b815481529060010190602001808311610e4757829003601f168201915b50505050508152602001600482018054610e7d90612d55565b80601f0160208091040260200160405190810160405280929190818152602001828054610ea990612d55565b8015610ef65780601f10610ecb57610100808354040283529160200191610ef6565b820191906000526020600020905b815481529060010190602001808311610ed957829003601f168201915b50505050508152602001600582018054610f0f90612d55565b80601f0160208091040260200160405190810160405280929190818152602001828054610f3b90612d55565b8015610f885780601f10610f5d57610100808354040283529160200191610f88565b820191906000526020600020905b815481529060010190602001808311610f6b57829003601f168201915b50505050508152602001600682018054610fa190612d55565b80601f0160208091040260200160405190810160405280929190818152602001828054610fcd90612d55565b801561101a5780601f10610fef5761010080835404028352916020019161101a565b820191906000526020600020905b815481529060010190602001808311610ffd57829003601f168201915b505050505081526020016007820154815260200160088201805461103d90612d55565b80601f016020809104026020016040519081016040528092919081815260200182805461106990612d55565b80156110b65780601f1061108b576101008083540402835291602001916110b6565b820191906000526020600020905b81548152906001019060200180831161109957829003601f168201915b5050505050815250509150506110dc565b80806110d290612d87565b915050610c1c565b505b919050565b600260205280600052604060002060009150905080600001549080600101805461110a90612d55565b80601f016020809104026020016040519081016040528092919081815260200182805461113690612d55565b80156111835780601f1061115857610100808354040283529160200191611183565b820191906000526020600020905b81548152906001019060200180831161116657829003601f168201915b50505050509080600201805461119890612d55565b80601f01602080910402602001604051908101604052809291908181526020018280546111c490612d55565b80156112115780601f106111e657610100808354040283529160200191611211565b820191906000526020600020905b8154815290600101906020018083116111f457829003601f168201915b50505050509080600301805461122690612d55565b80601f016020809104026020016040519081016040528092919081815260200182805461125290612d55565b801561129f5780601f106112745761010080835404028352916020019161129f565b820191906000526020600020905b81548152906001019060200180831161128257829003601f168201915b5050505050908060040180546112b490612d55565b80601f01602080910402602001604051908101604052809291908181526020018280546112e090612d55565b801561132d5780601f106113025761010080835404028352916020019161132d565b820191906000526020600020905b81548152906001019060200180831161131057829003601f168201915b50505050509080600501805461134290612d55565b80601f016020809104026020016040519081016040528092919081815260200182805461136e90612d55565b80156113bb5780601f10611390576101008083540402835291602001916113bb565b820191906000526020600020905b81548152906001019060200180831161139e57829003601f168201915b5050505050908060060180546113d090612d55565b80601f01602080910402602001604051908101604052809291908181526020018280546113fc90612d55565b80156114495780601f1061141e57610100808354040283529160200191611449565b820191906000526020600020905b81548152906001019060200180831161142c57829003601f168201915b50505050509080600701549080600801805461146490612d55565b80601f016020809104026020016040519081016040528092919081815260200182805461149090612d55565b80156114dd5780601f106114b2576101008083540402835291602001916114dd565b820191906000526020600020905b8154815290600101906020018083116114c057829003601f168201915b5050505050905089565b6114f087611c18565b61152f576040517f08c379a000000000000000000000000000000000000000000000000000000000815260040161152690612a2b565b60405180910390fd5b60008081548092919061154190612d87565b919050555060405180610120016040528060058461155f9190612ca3565b60005461156c9190612c4d565b81526020018981526020018881526020018781526020018681526020018581526020018481526020018381526020018281525060026000805481526020019081526020016000206000820151816000015560208201518160010190805190602001906115d99291906122a6565b5060408201518160020190805190602001906115f69291906122a6565b5060608201518160030190805190602001906116139291906122a6565b5060808201518160040190805190602001906116309291906122a6565b5060a082015181600501908051906020019061164d9291906122a6565b5060c082015181600601908051906020019061166a9291906122a6565b5060e082015181600701556101008201518160080190805190602001906116929291906122a6565b50905050866040516020016116a791906129c0565b6040516020818303038152906040528051906020012060026000805481526020019081526020016000206002016040516020016116e491906129d7565b604051602081830303815290604052805190602001201461173a576040517f08c379a000000000000000000000000000000000000000000000000000000000815260040161173190612a4b565b60405180910390fd5b5050505050505050565b61174c61225a565b6000600190505b6000548111611c11578260405160200161176d91906129c0565b60405160208183030381529060405280519060200120600260008381526020019081526020016000206002016040516020016117a991906129d7565b604051602081830303815290604052805190602001201415611bfe576002600082815260200190815260200160002060405180610120016040529081600082015481526020016001820180546117fe90612d55565b80601f016020809104026020016040519081016040528092919081815260200182805461182a90612d55565b80156118775780601f1061184c57610100808354040283529160200191611877565b820191906000526020600020905b81548152906001019060200180831161185a57829003601f168201915b5050505050815260200160028201805461189090612d55565b80601f01602080910402602001604051908101604052809291908181526020018280546118bc90612d55565b80156119095780601f106118de57610100808354040283529160200191611909565b820191906000526020600020905b8154815290600101906020018083116118ec57829003601f168201915b5050505050815260200160038201805461192290612d55565b80601f016020809104026020016040519081016040528092919081815260200182805461194e90612d55565b801561199b5780601f106119705761010080835404028352916020019161199b565b820191906000526020600020905b81548152906001019060200180831161197e57829003601f168201915b505050505081526020016004820180546119b490612d55565b80601f01602080910402602001604051908101604052809291908181526020018280546119e090612d55565b8015611a2d5780601f10611a0257610100808354040283529160200191611a2d565b820191906000526020600020905b815481529060010190602001808311611a1057829003601f168201915b50505050508152602001600582018054611a4690612d55565b80601f0160208091040260200160405190810160405280929190818152602001828054611a7290612d55565b8015611abf5780601f10611a9457610100808354040283529160200191611abf565b820191906000526020600020905b815481529060010190602001808311611aa257829003601f168201915b50505050508152602001600682018054611ad890612d55565b80601f0160208091040260200160405190810160405280929190818152602001828054611b0490612d55565b8015611b515780601f10611b2657610100808354040283529160200191611b51565b820191906000526020600020905b815481529060010190602001808311611b3457829003601f168201915b5050505050815260200160078201548152602001600882018054611b7490612d55565b80601f0160208091040260200160405190810160405280929190818152602001828054611ba090612d55565b8015611bed5780601f10611bc257610100808354040283529160200191611bed565b820191906000526020600020905b815481529060010190602001808311611bd057829003601f168201915b505050505081525050915050611c13565b8080611c0990612d87565b915050611753565b505b919050565b600080600190506000600190505b6000548111611cb05783604051602001611c4091906129c0565b6040516020818303038152906040528051906020012060026000838152602001908152602001600020600201604051602001611c7c91906129d7565b604051602081830303815290604052805190602001201415611c9d57600091505b8080611ca890612d87565b915050611c26565b5080915050919050565b6060600080805467ffffffffffffffff811115611d00577f4e487b7100000000000000000000000000000000000000000000000000000000600052604160045260246000fd5b604051908082528060200260200182016040528015611d3957816020015b611d2661225a565b815260200190600190039081611d1e5790505b5090506000600190505b600054811161224c5784604051602001611d5d91906129c0565b6040516020818303038152906040528051906020012060026000838152602001908152602001600020600101604051602001611d9991906129d7565b60405160208183030381529060405280519060200120141561223957600260008281526020019081526020016000206040518061012001604052908160008201548152602001600182018054611dee90612d55565b80601f0160208091040260200160405190810160405280929190818152602001828054611e1a90612d55565b8015611e675780601f10611e3c57610100808354040283529160200191611e67565b820191906000526020600020905b815481529060010190602001808311611e4a57829003601f168201915b50505050508152602001600282018054611e8090612d55565b80601f0160208091040260200160405190810160405280929190818152602001828054611eac90612d55565b8015611ef95780601f10611ece57610100808354040283529160200191611ef9565b820191906000526020600020905b815481529060010190602001808311611edc57829003601f168201915b50505050508152602001600382018054611f1290612d55565b80601f0160208091040260200160405190810160405280929190818152602001828054611f3e90612d55565b8015611f8b5780601f10611f6057610100808354040283529160200191611f8b565b820191906000526020600020905b815481529060010190602001808311611f6e57829003601f168201915b50505050508152602001600482018054611fa490612d55565b80601f0160208091040260200160405190810160405280929190818152602001828054611fd090612d55565b801561201d5780601f10611ff25761010080835404028352916020019161201d565b820191906000526020600020905b81548152906001019060200180831161200057829003601f168201915b5050505050815260200160058201805461203690612d55565b80601f016020809104026020016040519081016040528092919081815260200182805461206290612d55565b80156120af5780601f10612084576101008083540402835291602001916120af565b820191906000526020600020905b81548152906001019060200180831161209257829003601f168201915b505050505081526020016006820180546120c890612d55565b80601f01602080910402602001604051908101604052809291908181526020018280546120f490612d55565b80156121415780601f1061211657610100808354040283529160200191612141565b820191906000526020600020905b81548152906001019060200180831161212457829003601f168201915b505050505081526020016007820154815260200160088201805461216490612d55565b80601f016020809104026020016040519081016040528092919081815260200182805461219090612d55565b80156121dd5780601f106121b2576101008083540402835291602001916121dd565b820191906000526020600020905b8154815290600101906020018083116121c057829003601f168201915b50505050508152505082848151811061221f577f4e487b7100000000000000000000000000000000000000000000000000000000600052603260045260246000fd5b6020026020010181905250828061223590612d87565b9350505b808061224490612d87565b915050611d43565b508181528092505050919050565b6040518061012001604052806000815260200160608152602001606081526020016060815260200160608152602001606081526020016060815260200160008152602001606081525090565b8280546122b290612d55565b90600052602060002090601f0160209004810192826122d4576000855561231b565b82601f106122ed57805160ff191683800117855561231b565b8280016001018555821561231b579182015b8281111561231a5782518255916020019190600101906122ff565b5b509050612328919061232c565b5090565b5b8082111561234557600081600090555060010161232d565b5090565b600061235c61235784612b97565b612b66565b90508281526020810184848401111561237457600080fd5b61237f848285612d13565b509392505050565b600082601f83011261239857600080fd5b81356123a8848260208601612349565b91505092915050565b6000813590506123c081612e6e565b92915050565b6000602082840312156123d857600080fd5b600082013567ffffffffffffffff8111156123f257600080fd5b6123fe84828501612387565b91505092915050565b600080600080600080600080610100898b03121561242457600080fd5b600089013567ffffffffffffffff81111561243e57600080fd5b61244a8b828c01612387565b985050602089013567ffffffffffffffff81111561246757600080fd5b6124738b828c01612387565b975050604089013567ffffffffffffffff81111561249057600080fd5b61249c8b828c01612387565b965050606089013567ffffffffffffffff8111156124b957600080fd5b6124c58b828c01612387565b955050608089013567ffffffffffffffff8111156124e257600080fd5b6124ee8b828c01612387565b94505060a089013567ffffffffffffffff81111561250b57600080fd5b6125178b828c01612387565b93505060c06125288b828c016123b1565b92505060e089013567ffffffffffffffff81111561254557600080fd5b6125518b828c01612387565b9150509295985092959890939650565b60006020828403121561257357600080fd5b6000612581848285016123b1565b91505092915050565b600061259683836127c4565b905092915050565b60006125a982612bec565b6125b38185612c0f565b9350836020820285016125c585612bc7565b8060005b8581101561260157848403895281516125e2858261258a565b94506125ed83612c02565b925060208a019950506001810190506125c9565b50829750879550505050505092915050565b61261c81612cfd565b82525050565b600061262d82612bf7565b6126378185612c20565b9350612647818560208601612d22565b61265081612e5d565b840191505092915050565b600061266682612bf7565b6126708185612c31565b9350612680818560208601612d22565b61268981612e5d565b840191505092915050565b600061269f82612bf7565b6126a98185612c42565b93506126b9818560208601612d22565b80840191505092915050565b600081546126d281612d55565b6126dc8186612c42565b945060018216600081146126f757600181146127085761273b565b60ff1983168652818601935061273b565b61271185612bd7565b60005b8381101561273357815481890152600182019150602081019050612714565b838801955050505b50505092915050565b6000612751601583612c31565b91507f6469706c6f6d6520616c726561647920657869737400000000000000000000006000830152602082019050919050565b6000612791601583612c31565b91507f74686520626c6f636b20646f65736e27742061646400000000000000000000006000830152602082019050919050565b6000610120830160008301516127dd60008601826129a2565b50602083015184820360208601526127f58282612622565b9150506040830151848203604086015261280f8282612622565b915050606083015184820360608601526128298282612622565b915050608083015184820360808601526128438282612622565b91505060a083015184820360a086015261285d8282612622565b91505060c083015184820360c08601526128778282612622565b91505060e083015161288c60e08601826129a2565b506101008301518482036101008601526128a68282612622565b9150508091505092915050565b6000610120830160008301516128cc60008601826129a2565b50602083015184820360208601526128e48282612622565b915050604083015184820360408601526128fe8282612622565b915050606083015184820360608601526129188282612622565b915050608083015184820360808601526129328282612622565b91505060a083015184820360a086015261294c8282612622565b91505060c083015184820360c08601526129668282612622565b91505060e083015161297b60e08601826129a2565b506101008301518482036101008601526129958282612622565b9150508091505092915050565b6129ab81612d09565b82525050565b6129ba81612d09565b82525050565b60006129cc8284612694565b915081905092915050565b60006129e382846126c5565b915081905092915050565b60006020820190508181036000830152612a08818461259e565b905092915050565b6000602082019050612a256000830184612613565b92915050565b60006020820190508181036000830152612a4481612744565b9050919050565b60006020820190508181036000830152612a6481612784565b9050919050565b60006020820190508181036000830152612a8581846128b3565b905092915050565b6000602082019050612aa260008301846129b1565b92915050565b600061012082019050612abe600083018c6129b1565b8181036020830152612ad0818b61265b565b90508181036040830152612ae4818a61265b565b90508181036060830152612af8818961265b565b90508181036080830152612b0c818861265b565b905081810360a0830152612b20818761265b565b905081810360c0830152612b34818661265b565b9050612b4360e08301856129b1565b818103610100830152612b56818461265b565b90509a9950505050505050505050565b6000604051905081810181811067ffffffffffffffff82111715612b8d57612b8c612e2e565b5b8060405250919050565b600067ffffffffffffffff821115612bb257612bb1612e2e565b5b601f19601f8301169050602081019050919050565b6000819050602082019050919050565b60008190508160005260206000209050919050565b600081519050919050565b600081519050919050565b6000602082019050919050565b600082825260208201905092915050565b600082825260208201905092915050565b600082825260208201905092915050565b600081905092915050565b6000612c5882612d09565b9150612c6383612d09565b9250827fffffffffffffffffffffffffffffffffffffffffffffffffffffffffffffffff03821115612c9857612c97612dd0565b5b828201905092915050565b6000612cae82612d09565b9150612cb983612d09565b9250817fffffffffffffffffffffffffffffffffffffffffffffffffffffffffffffffff0483118215151615612cf257612cf1612dd0565b5b828202905092915050565b60008115159050919050565b6000819050919050565b82818337600083830152505050565b60005b83811015612d40578082015181840152602081019050612d25565b83811115612d4f576000848401525b50505050565b60006002820490506001821680612d6d57607f821691505b60208210811415612d8157612d80612dff565b5b50919050565b6000612d9282612d09565b91507fffffffffffffffffffffffffffffffffffffffffffffffffffffffffffffffff821415612dc557612dc4612dd0565b5b600182019050919050565b7f4e487b7100000000000000000000000000000000000000000000000000000000600052601160045260246000fd5b7f4e487b7100000000000000000000000000000000000000000000000000000000600052602260045260246000fd5b7f4e487b7100000000000000000000000000000000000000000000000000000000600052604160045260246000fd5b6000601f19601f8301169050919050565b612e7781612d09565b8114612e8257600080fd5b5056fea2646970667358221220eef06ff59555e4fb7ecc8762899531abd08563f41cba772cbfa5b216779bf15a64736f6c63430008000033",
  "immutableReferences": {},
  "source": "// SPDX-License-Identifier: MIT\r\npragma solidity >=0.7.0 <0.9.0;\r\n\r\ncontract Diplomes {\r\n    uint public countDiplome = 0;\r\n    address owner;\r\n    // string value;\r\n    // State public myState;\r\n    struct diplome {\r\n        uint idDiplom;\r\n        string FullName;\r\n        string cin;\r\n        string cne;\r\n        string dateNaissance;\r\n        string sector;\r\n        string diplomaType;\r\n        uint session;\r\n        string institution;\r\n    }\r\n\r\n    // modifier onlyOwner() {\r\n    //     require(msg.sender == owner);\r\n    //     _;\r\n    // }\r\n    mapping(uint => diplome) public diplomes;\r\n\r\n    constructor() {\r\n        owner = msg.sender;\r\n    }\r\n\r\n    function checkDiplome(string memory _cin) public view returns (bool) {\r\n        bool test = true;\r\n        for (uint i = 1; i <= countDiplome; i++) {\r\n            if (\r\n                keccak256(abi.encodePacked(diplomes[i].cin)) ==\r\n                keccak256(abi.encodePacked(_cin))\r\n            ) {\r\n                test = false;\r\n            }\r\n        }\r\n        return test;\r\n    }\r\n\r\n    function addDiplome(\r\n        string memory _name,\r\n        string memory _cin,\r\n        string memory _cne,\r\n        string memory _dateNaissance,\r\n        string memory _sector,\r\n        string memory _type,\r\n        uint _session,\r\n        string memory _insti\r\n    ) public {\r\n        // if (!checkDiplome(_cin)) {\r\n        //     return false;\r\n        // }\r\n        require(checkDiplome(_cin), \"diplome already exist\");\r\n        countDiplome++;\r\n        diplomes[countDiplome] = diplome(\r\n            countDiplome + _session * 5,\r\n            _name,\r\n            _cin,\r\n            _cne,\r\n            _dateNaissance,\r\n            _sector,\r\n            _type,\r\n            _session,\r\n            _insti\r\n        );\r\n        require(\r\n            keccak256(abi.encodePacked(diplomes[countDiplome].cin)) ==\r\n                keccak256(abi.encodePacked(_cin)),\r\n            \"the block doesn't add\"\r\n        );\r\n    }\r\n\r\n    function searchByid(uint _id) public view returns (diplome memory) {\r\n        for (uint i = 1; i <= countDiplome; i++) {\r\n            if (diplomes[i].idDiplom == _id) {\r\n                return diplomes[i];\r\n            }\r\n        }\r\n    }\r\n\r\n    function searchByCin(\r\n        string memory _cin\r\n    ) public view returns (diplome memory) {\r\n        for (uint i = 1; i <= countDiplome; i++) {\r\n            if (\r\n                keccak256(abi.encodePacked(diplomes[i].cin)) ==\r\n                keccak256(abi.encodePacked(_cin))\r\n            ) {\r\n                return diplomes[i];\r\n            }\r\n        }\r\n    }\r\n\r\n    function searchByCne(\r\n        string memory _cne\r\n    ) public view returns (diplome memory) {\r\n        for (uint i = 1; i <= countDiplome; i++) {\r\n            if (\r\n                keccak256(abi.encodePacked(diplomes[i].cne)) ==\r\n                keccak256(abi.encodePacked(_cne))\r\n            ) {\r\n                return diplomes[i];\r\n            }\r\n        }\r\n    }\r\n\r\n    function searchByName(\r\n        string memory _name\r\n    ) public view returns (diplome[] memory) {\r\n        uint count = 0;\r\n        diplome[] memory twinsDiplome = new diplome[](countDiplome);\r\n        for (uint i = 1; i <= countDiplome; i++) {\r\n            if (\r\n                keccak256(abi.encodePacked(diplomes[i].FullName)) ==\r\n                keccak256(abi.encodePacked(_name))\r\n            ) {\r\n                twinsDiplome[count] = diplomes[i];\r\n                count++;\r\n            }\r\n        }\r\n        assembly {\r\n            mstore(twinsDiplome, count)\r\n        }\r\n        return twinsDiplome;\r\n    }\r\n\r\n    function searchBySession(\r\n        uint _session\r\n    ) public view returns (diplome[] memory) {\r\n        uint count = 0;\r\n        diplome[] memory twinsDiplome = new diplome[](countDiplome);\r\n        for (uint i = 1; i <= countDiplome; i++) {\r\n            if (diplomes[i].session == _session) {\r\n                twinsDiplome[count] = diplomes[i];\r\n                count++;\r\n            }\r\n        }\r\n        assembly {\r\n            mstore(twinsDiplome, count)\r\n        }\r\n        return twinsDiplome;\r\n    }\r\n}\r\n",
  "sourcePath": "C:\\Users\\amal\\Desktop\\PFE\\projectv1\\contracts\\Diplomes.sol",
  "compiler": {
    "name": "solc",
    "version": "0.8.0+commit.c7dfd78e.Emscripten.clang"
  },
  "schemaVersion": "3.4.13",
  "updatedAt": "2023-05-18T00:27:07.545Z",
  "networkType": "ethereum",
  "devdoc": {
    "kind": "dev",
    "methods": {},
    "version": 1
  },
  "userdoc": {
    "kind": "user",
    "methods": {},
    "version": 1
  }
}