{
  "contractName": "Diplomes",
  "abi": [
    {
      "inputs": [],
      "stateMutability": "nonpayable",
      "type": "constructor"
    },
    {
      "inputs": [],
      "name": "countDiplome",
      "outputs": [
        {
          "internalType": "uint256",
          "name": "",
          "type": "uint256"
        }
      ],
      "stateMutability": "view",
      "type": "function"
    },
    {
      "inputs": [
        {
          "internalType": "uint256",
          "name": "",
          "type": "uint256"
        }
      ],
      "name": "diplomes",
      "outputs": [
        {
          "internalType": "string",
          "name": "idDiplom",
          "type": "string"
        },
        {
          "internalType": "string",
          "name": "FullName",
          "type": "string"
        },
        {
          "internalType": "string",
          "name": "cin",
          "type": "string"
        },
        {
          "internalType": "string",
          "name": "cne",
          "type": "string"
        },
        {
          "internalType": "string",
          "name": "dateNaissance",
          "type": "string"
        },
        {
          "internalType": "string",
          "name": "sector",
          "type": "string"
        },
        {
          "internalType": "string",
          "name": "diplomaType",
          "type": "string"
        },
        {
          "internalType": "string",
          "name": "section",
          "type": "string"
        },
        {
          "internalType": "string",
          "name": "institution",
          "type": "string"
        }
      ],
      "stateMutability": "view",
      "type": "function"
    },
    {
      "inputs": [
        {
          "internalType": "string",
          "name": "_cne",
          "type": "string"
        }
      ],
      "name": "checkDiplome",
      "outputs": [
        {
          "internalType": "bool",
          "name": "",
          "type": "bool"
        }
      ],
      "stateMutability": "view",
      "type": "function"
    },
    {
      "inputs": [
        {
          "internalType": "string",
          "name": "_id",
          "type": "string"
        },
        {
          "internalType": "string",
          "name": "_name",
          "type": "string"
        },
        {
          "internalType": "string",
          "name": "_cin",
          "type": "string"
        },
        {
          "internalType": "string",
          "name": "_cne",
          "type": "string"
        },
        {
          "internalType": "string",
          "name": "_dateNaissance",
          "type": "string"
        },
        {
          "internalType": "string",
          "name": "_sector",
          "type": "string"
        },
        {
          "internalType": "string",
          "name": "_type",
          "type": "string"
        },
        {
          "internalType": "string",
          "name": "_section",
          "type": "string"
        },
        {
          "internalType": "string",
          "name": "_insti",
          "type": "string"
        }
      ],
      "name": "addDiplome",
      "outputs": [],
      "stateMutability": "nonpayable",
      "type": "function"
    },
    {
      "inputs": [
        {
          "internalType": "string",
          "name": "_id",
          "type": "string"
        }
      ],
      "name": "searchByid",
      "outputs": [
        {
          "components": [
            {
              "internalType": "string",
              "name": "idDiplom",
              "type": "string"
            },
            {
              "internalType": "string",
              "name": "FullName",
              "type": "string"
            },
            {
              "internalType": "string",
              "name": "cin",
              "type": "string"
            },
            {
              "internalType": "string",
              "name": "cne",
              "type": "string"
            },
            {
              "internalType": "string",
              "name": "dateNaissance",
              "type": "string"
            },
            {
              "internalType": "string",
              "name": "sector",
              "type": "string"
            },
            {
              "internalType": "string",
              "name": "diplomaType",
              "type": "string"
            },
            {
              "internalType": "string",
              "name": "section",
              "type": "string"
            },
            {
              "internalType": "string",
              "name": "institution",
              "type": "string"
            }
          ],
          "internalType": "struct Diplomes.diplome",
          "name": "",
          "type": "tuple"
        }
      ],
      "stateMutability": "view",
      "type": "function"
    },
    {
      "inputs": [
        {
          "internalType": "string",
          "name": "_cin",
          "type": "string"
        }
      ],
      "name": "searchByCin",
      "outputs": [
        {
          "components": [
            {
              "internalType": "string",
              "name": "idDiplom",
              "type": "string"
            },
            {
              "internalType": "string",
              "name": "FullName",
              "type": "string"
            },
            {
              "internalType": "string",
              "name": "cin",
              "type": "string"
            },
            {
              "internalType": "string",
              "name": "cne",
              "type": "string"
            },
            {
              "internalType": "string",
              "name": "dateNaissance",
              "type": "string"
            },
            {
              "internalType": "string",
              "name": "sector",
              "type": "string"
            },
            {
              "internalType": "string",
              "name": "diplomaType",
              "type": "string"
            },
            {
              "internalType": "string",
              "name": "section",
              "type": "string"
            },
            {
              "internalType": "string",
              "name": "institution",
              "type": "string"
            }
          ],
          "internalType": "struct Diplomes.diplome",
          "name": "",
          "type": "tuple"
        }
      ],
      "stateMutability": "view",
      "type": "function"
    },
    {
      "inputs": [
        {
          "internalType": "string",
          "name": "_cne",
          "type": "string"
        }
      ],
      "name": "searchByCne",
      "outputs": [
        {
          "components": [
            {
              "internalType": "string",
              "name": "idDiplom",
              "type": "string"
            },
            {
              "internalType": "string",
              "name": "FullName",
              "type": "string"
            },
            {
              "internalType": "string",
              "name": "cin",
              "type": "string"
            },
            {
              "internalType": "string",
              "name": "cne",
              "type": "string"
            },
            {
              "internalType": "string",
              "name": "dateNaissance",
              "type": "string"
            },
            {
              "internalType": "string",
              "name": "sector",
              "type": "string"
            },
            {
              "internalType": "string",
              "name": "diplomaType",
              "type": "string"
            },
            {
              "internalType": "string",
              "name": "section",
              "type": "string"
            },
            {
              "internalType": "string",
              "name": "institution",
              "type": "string"
            }
          ],
          "internalType": "struct Diplomes.diplome",
          "name": "",
          "type": "tuple"
        }
      ],
      "stateMutability": "view",
      "type": "function"
    },
    {
      "inputs": [
        {
          "internalType": "string",
          "name": "_name",
          "type": "string"
        }
      ],
      "name": "searchByName",
      "outputs": [
        {
          "components": [
            {
              "internalType": "string",
              "name": "idDiplom",
              "type": "string"
            },
            {
              "internalType": "string",
              "name": "FullName",
              "type": "string"
            },
            {
              "internalType": "string",
              "name": "cin",
              "type": "string"
            },
            {
              "internalType": "string",
              "name": "cne",
              "type": "string"
            },
            {
              "internalType": "string",
              "name": "dateNaissance",
              "type": "string"
            },
            {
              "internalType": "string",
              "name": "sector",
              "type": "string"
            },
            {
              "internalType": "string",
              "name": "diplomaType",
              "type": "string"
            },
            {
              "internalType": "string",
              "name": "section",
              "type": "string"
            },
            {
              "internalType": "string",
              "name": "institution",
              "type": "string"
            }
          ],
          "internalType": "struct Diplomes.diplome[]",
          "name": "",
          "type": "tuple[]"
        }
      ],
      "stateMutability": "view",
      "type": "function"
    },
    {
      "inputs": [
        {
          "internalType": "string",
          "name": "_section",
          "type": "string"
        }
      ],
      "name": "searchBySection",
      "outputs": [
        {
          "components": [
            {
              "internalType": "string",
              "name": "idDiplom",
              "type": "string"
            },
            {
              "internalType": "string",
              "name": "FullName",
              "type": "string"
            },
            {
              "internalType": "string",
              "name": "cin",
              "type": "string"
            },
            {
              "internalType": "string",
              "name": "cne",
              "type": "string"
            },
            {
              "internalType": "string",
              "name": "dateNaissance",
              "type": "string"
            },
            {
              "internalType": "string",
              "name": "sector",
              "type": "string"
            },
            {
              "internalType": "string",
              "name": "diplomaType",
              "type": "string"
            },
            {
              "internalType": "string",
              "name": "section",
              "type": "string"
            },
            {
              "internalType": "string",
              "name": "institution",
              "type": "string"
            }
          ],
          "internalType": "struct Diplomes.diplome[]",
          "name": "",
          "type": "tuple[]"
        }
      ],
      "stateMutability": "view",
      "type": "function"
    }
  ],
  "bytecode": "0x60806040526000805534801561001457600080fd5b5033600160006101000a81548173ffffffffffffffffffffffffffffffffffffffff021916908373ffffffffffffffffffffffffffffffffffffffff16021790555061356f806100656000396000f3fe608060405234801561001057600080fd5b50600436106100935760003560e01c8063bc4dff4011610066578063bc4dff401461014e578063bcf998b91461017e578063d6a6e35c146101ae578063ddbbc35c146101ca578063fb427aad146101fa57610093565b80633a44df2d146100985780635114aeac146100b657806359788ed1146100e6578063768ceb9a14610116575b600080fd5b6100a061022a565b6040516100ad91906132af565b60405180910390f35b6100d060048036038101906100cb9190612acb565b610230565b6040516100dd919061328d565b60405180910390f35b61010060048036038101906100fb9190612acb565b610814565b60405161010d9190613144565b60405180910390f35b610130600480360381019061012b9190612caa565b610ec4565b60405161014599989796959493929190613181565b60405180910390f35b61016860048036038101906101639190612acb565b6113da565b604051610175919061328d565b60405180910390f35b61019860048036038101906101939190612acb565b6119be565b6040516101a59190613166565b60405180910390f35b6101c860048036038101906101c39190612b0c565b611a60565b005b6101e460048036038101906101df9190612acb565b611ccb565b6040516101f19190613144565b60405180910390f35b610214600480360381019061020f9190612acb565b61237b565b604051610221919061328d565b60405180910390f35b60005481565b61023861295f565b6000600190505b600054811161080d57826040516020016102599190613116565b6040516020818303038152906040528051906020012060026000838152602001908152602001600020600301604051602001610295919061312d565b6040516020818303038152906040528051906020012014156107fa5760026000828152602001908152602001600020604051806101200160405290816000820180546102e090613409565b80601f016020809104026020016040519081016040528092919081815260200182805461030c90613409565b80156103595780601f1061032e57610100808354040283529160200191610359565b820191906000526020600020905b81548152906001019060200180831161033c57829003601f168201915b5050505050815260200160018201805461037290613409565b80601f016020809104026020016040519081016040528092919081815260200182805461039e90613409565b80156103eb5780601f106103c0576101008083540402835291602001916103eb565b820191906000526020600020905b8154815290600101906020018083116103ce57829003601f168201915b5050505050815260200160028201805461040490613409565b80601f016020809104026020016040519081016040528092919081815260200182805461043090613409565b801561047d5780601f106104525761010080835404028352916020019161047d565b820191906000526020600020905b81548152906001019060200180831161046057829003601f168201915b5050505050815260200160038201805461049690613409565b80601f01602080910402602001604051908101604052809291908181526020018280546104c290613409565b801561050f5780601f106104e45761010080835404028352916020019161050f565b820191906000526020600020905b8154815290600101906020018083116104f257829003601f168201915b5050505050815260200160048201805461052890613409565b80601f016020809104026020016040519081016040528092919081815260200182805461055490613409565b80156105a15780601f10610576576101008083540402835291602001916105a1565b820191906000526020600020905b81548152906001019060200180831161058457829003601f168201915b505050505081526020016005820180546105ba90613409565b80601f01602080910402602001604051908101604052809291908181526020018280546105e690613409565b80156106335780601f1061060857610100808354040283529160200191610633565b820191906000526020600020905b81548152906001019060200180831161061657829003601f168201915b5050505050815260200160068201805461064c90613409565b80601f016020809104026020016040519081016040528092919081815260200182805461067890613409565b80156106c55780601f1061069a576101008083540402835291602001916106c5565b820191906000526020600020905b8154815290600101906020018083116106a857829003601f168201915b505050505081526020016007820180546106de90613409565b80601f016020809104026020016040519081016040528092919081815260200182805461070a90613409565b80156107575780601f1061072c57610100808354040283529160200191610757565b820191906000526020600020905b81548152906001019060200180831161073a57829003601f168201915b5050505050815260200160088201805461077090613409565b80601f016020809104026020016040519081016040528092919081815260200182805461079c90613409565b80156107e95780601f106107be576101008083540402835291602001916107e9565b820191906000526020600020905b8154815290600101906020018083116107cc57829003601f168201915b50505050508152505091505061080f565b80806108059061343b565b91505061023f565b505b919050565b6060600080805467ffffffffffffffff81111561085a577f4e487b7100000000000000000000000000000000000000000000000000000000600052604160045260246000fd5b60405190808252806020026020018201604052801561089357816020015b61088061295f565b8152602001906001900390816108785790505b5090506000600190505b6000548111610eb657846040516020016108b79190613116565b60405160208183030381529060405280519060200120600260008381526020019081526020016000206007016040516020016108f3919061312d565b604051602081830303815290604052805190602001201415610ea357600260008281526020019081526020016000206040518061012001604052908160008201805461093e90613409565b80601f016020809104026020016040519081016040528092919081815260200182805461096a90613409565b80156109b75780601f1061098c576101008083540402835291602001916109b7565b820191906000526020600020905b81548152906001019060200180831161099a57829003601f168201915b505050505081526020016001820180546109d090613409565b80601f01602080910402602001604051908101604052809291908181526020018280546109fc90613409565b8015610a495780601f10610a1e57610100808354040283529160200191610a49565b820191906000526020600020905b815481529060010190602001808311610a2c57829003601f168201915b50505050508152602001600282018054610a6290613409565b80601f0160208091040260200160405190810160405280929190818152602001828054610a8e90613409565b8015610adb5780601f10610ab057610100808354040283529160200191610adb565b820191906000526020600020905b815481529060010190602001808311610abe57829003601f168201915b50505050508152602001600382018054610af490613409565b80601f0160208091040260200160405190810160405280929190818152602001828054610b2090613409565b8015610b6d5780601f10610b4257610100808354040283529160200191610b6d565b820191906000526020600020905b815481529060010190602001808311610b5057829003601f168201915b50505050508152602001600482018054610b8690613409565b80601f0160208091040260200160405190810160405280929190818152602001828054610bb290613409565b8015610bff5780601f10610bd457610100808354040283529160200191610bff565b820191906000526020600020905b815481529060010190602001808311610be257829003601f168201915b50505050508152602001600582018054610c1890613409565b80601f0160208091040260200160405190810160405280929190818152602001828054610c4490613409565b8015610c915780601f10610c6657610100808354040283529160200191610c91565b820191906000526020600020905b815481529060010190602001808311610c7457829003601f168201915b50505050508152602001600682018054610caa90613409565b80601f0160208091040260200160405190810160405280929190818152602001828054610cd690613409565b8015610d235780601f10610cf857610100808354040283529160200191610d23565b820191906000526020600020905b815481529060010190602001808311610d0657829003601f168201915b50505050508152602001600782018054610d3c90613409565b80601f0160208091040260200160405190810160405280929190818152602001828054610d6890613409565b8015610db55780601f10610d8a57610100808354040283529160200191610db5565b820191906000526020600020905b815481529060010190602001808311610d9857829003601f168201915b50505050508152602001600882018054610dce90613409565b80601f0160208091040260200160405190810160405280929190818152602001828054610dfa90613409565b8015610e475780601f10610e1c57610100808354040283529160200191610e47565b820191906000526020600020905b815481529060010190602001808311610e2a57829003601f168201915b505050505081525050828481518110610e89577f4e487b7100000000000000000000000000000000000000000000000000000000600052603260045260246000fd5b60200260200101819052508280610e9f9061343b565b9350505b8080610eae9061343b565b91505061089d565b508181528092505050919050565b6002602052806000526040600020600091509050806000018054610ee790613409565b80601f0160208091040260200160405190810160405280929190818152602001828054610f1390613409565b8015610f605780601f10610f3557610100808354040283529160200191610f60565b820191906000526020600020905b815481529060010190602001808311610f4357829003601f168201915b505050505090806001018054610f7590613409565b80601f0160208091040260200160405190810160405280929190818152602001828054610fa190613409565b8015610fee5780601f10610fc357610100808354040283529160200191610fee565b820191906000526020600020905b815481529060010190602001808311610fd157829003601f168201915b50505050509080600201805461100390613409565b80601f016020809104026020016040519081016040528092919081815260200182805461102f90613409565b801561107c5780601f106110515761010080835404028352916020019161107c565b820191906000526020600020905b81548152906001019060200180831161105f57829003601f168201915b50505050509080600301805461109190613409565b80601f01602080910402602001604051908101604052809291908181526020018280546110bd90613409565b801561110a5780601f106110df5761010080835404028352916020019161110a565b820191906000526020600020905b8154815290600101906020018083116110ed57829003601f168201915b50505050509080600401805461111f90613409565b80601f016020809104026020016040519081016040528092919081815260200182805461114b90613409565b80156111985780601f1061116d57610100808354040283529160200191611198565b820191906000526020600020905b81548152906001019060200180831161117b57829003601f168201915b5050505050908060050180546111ad90613409565b80601f01602080910402602001604051908101604052809291908181526020018280546111d990613409565b80156112265780601f106111fb57610100808354040283529160200191611226565b820191906000526020600020905b81548152906001019060200180831161120957829003601f168201915b50505050509080600601805461123b90613409565b80601f016020809104026020016040519081016040528092919081815260200182805461126790613409565b80156112b45780601f10611289576101008083540402835291602001916112b4565b820191906000526020600020905b81548152906001019060200180831161129757829003601f168201915b5050505050908060070180546112c990613409565b80601f01602080910402602001604051908101604052809291908181526020018280546112f590613409565b80156113425780601f1061131757610100808354040283529160200191611342565b820191906000526020600020905b81548152906001019060200180831161132557829003601f168201915b50505050509080600801805461135790613409565b80601f016020809104026020016040519081016040528092919081815260200182805461138390613409565b80156113d05780601f106113a5576101008083540402835291602001916113d0565b820191906000526020600020905b8154815290600101906020018083116113b357829003601f168201915b5050505050905089565b6113e261295f565b6000600190505b60005481116119b757826040516020016114039190613116565b604051602081830303815290604052805190602001206002600083815260200190815260200160002060020160405160200161143f919061312d565b6040516020818303038152906040528051906020012014156119a457600260008281526020019081526020016000206040518061012001604052908160008201805461148a90613409565b80601f01602080910402602001604051908101604052809291908181526020018280546114b690613409565b80156115035780601f106114d857610100808354040283529160200191611503565b820191906000526020600020905b8154815290600101906020018083116114e657829003601f168201915b5050505050815260200160018201805461151c90613409565b80601f016020809104026020016040519081016040528092919081815260200182805461154890613409565b80156115955780601f1061156a57610100808354040283529160200191611595565b820191906000526020600020905b81548152906001019060200180831161157857829003601f168201915b505050505081526020016002820180546115ae90613409565b80601f01602080910402602001604051908101604052809291908181526020018280546115da90613409565b80156116275780601f106115fc57610100808354040283529160200191611627565b820191906000526020600020905b81548152906001019060200180831161160a57829003601f168201915b5050505050815260200160038201805461164090613409565b80601f016020809104026020016040519081016040528092919081815260200182805461166c90613409565b80156116b95780601f1061168e576101008083540402835291602001916116b9565b820191906000526020600020905b81548152906001019060200180831161169c57829003601f168201915b505050505081526020016004820180546116d290613409565b80601f01602080910402602001604051908101604052809291908181526020018280546116fe90613409565b801561174b5780601f106117205761010080835404028352916020019161174b565b820191906000526020600020905b81548152906001019060200180831161172e57829003601f168201915b5050505050815260200160058201805461176490613409565b80601f016020809104026020016040519081016040528092919081815260200182805461179090613409565b80156117dd5780601f106117b2576101008083540402835291602001916117dd565b820191906000526020600020905b8154815290600101906020018083116117c057829003601f168201915b505050505081526020016006820180546117f690613409565b80601f016020809104026020016040519081016040528092919081815260200182805461182290613409565b801561186f5780601f106118445761010080835404028352916020019161186f565b820191906000526020600020905b81548152906001019060200180831161185257829003601f168201915b5050505050815260200160078201805461188890613409565b80601f01602080910402602001604051908101604052809291908181526020018280546118b490613409565b80156119015780601f106118d657610100808354040283529160200191611901565b820191906000526020600020905b8154815290600101906020018083116118e457829003601f168201915b5050505050815260200160088201805461191a90613409565b80601f016020809104026020016040519081016040528092919081815260200182805461194690613409565b80156119935780601f1061196857610100808354040283529160200191611993565b820191906000526020600020905b81548152906001019060200180831161197657829003601f168201915b5050505050815250509150506119b9565b80806119af9061343b565b9150506113e9565b505b919050565b600080600190506000600190505b6000548111611a5657836040516020016119e69190613116565b6040516020818303038152906040528051906020012060026000838152602001908152602001600020600301604051602001611a22919061312d565b604051602081830303815290604052805190602001201415611a4357600091505b8080611a4e9061343b565b9150506119cc565b5080915050919050565b611a69866119be565b611aa8576040517f08c379a0000000000000000000000000000000000000000000000000000000008152600401611a9f9061324d565b60405180910390fd5b600080815480929190611aba9061343b565b91905055506040518061012001604052808a81526020018981526020018881526020018781526020018681526020018581526020018481526020018381526020018281525060026000805481526020019081526020016000206000820151816000019080519060200190611b2f9291906129ab565b506020820151816001019080519060200190611b4c9291906129ab565b506040820151816002019080519060200190611b699291906129ab565b506060820151816003019080519060200190611b869291906129ab565b506080820151816004019080519060200190611ba39291906129ab565b5060a0820151816005019080519060200190611bc09291906129ab565b5060c0820151816006019080519060200190611bdd9291906129ab565b5060e0820151816007019080519060200190611bfa9291906129ab565b50610100820151816008019080519060200190611c189291906129ab565b5090505086604051602001611c2d9190613116565b604051602081830303815290604052805190602001206002600080548152602001908152602001600020600201604051602001611c6a919061312d565b6040516020818303038152906040528051906020012014611cc0576040517f08c379a0000000000000000000000000000000000000000000000000000000008152600401611cb79061326d565b60405180910390fd5b505050505050505050565b6060600080805467ffffffffffffffff811115611d11577f4e487b7100000000000000000000000000000000000000000000000000000000600052604160045260246000fd5b604051908082528060200260200182016040528015611d4a57816020015b611d3761295f565b815260200190600190039081611d2f5790505b5090506000600190505b600054811161236d5784604051602001611d6e9190613116565b6040516020818303038152906040528051906020012060026000838152602001908152602001600020600101604051602001611daa919061312d565b60405160208183030381529060405280519060200120141561235a576002600082815260200190815260200160002060405180610120016040529081600082018054611df590613409565b80601f0160208091040260200160405190810160405280929190818152602001828054611e2190613409565b8015611e6e5780601f10611e4357610100808354040283529160200191611e6e565b820191906000526020600020905b815481529060010190602001808311611e5157829003601f168201915b50505050508152602001600182018054611e8790613409565b80601f0160208091040260200160405190810160405280929190818152602001828054611eb390613409565b8015611f005780601f10611ed557610100808354040283529160200191611f00565b820191906000526020600020905b815481529060010190602001808311611ee357829003601f168201915b50505050508152602001600282018054611f1990613409565b80601f0160208091040260200160405190810160405280929190818152602001828054611f4590613409565b8015611f925780601f10611f6757610100808354040283529160200191611f92565b820191906000526020600020905b815481529060010190602001808311611f7557829003601f168201915b50505050508152602001600382018054611fab90613409565b80601f0160208091040260200160405190810160405280929190818152602001828054611fd790613409565b80156120245780601f10611ff957610100808354040283529160200191612024565b820191906000526020600020905b81548152906001019060200180831161200757829003601f168201915b5050505050815260200160048201805461203d90613409565b80601f016020809104026020016040519081016040528092919081815260200182805461206990613409565b80156120b65780601f1061208b576101008083540402835291602001916120b6565b820191906000526020600020905b81548152906001019060200180831161209957829003601f168201915b505050505081526020016005820180546120cf90613409565b80601f01602080910402602001604051908101604052809291908181526020018280546120fb90613409565b80156121485780601f1061211d57610100808354040283529160200191612148565b820191906000526020600020905b81548152906001019060200180831161212b57829003601f168201915b5050505050815260200160068201805461216190613409565b80601f016020809104026020016040519081016040528092919081815260200182805461218d90613409565b80156121da5780601f106121af576101008083540402835291602001916121da565b820191906000526020600020905b8154815290600101906020018083116121bd57829003601f168201915b505050505081526020016007820180546121f390613409565b80601f016020809104026020016040519081016040528092919081815260200182805461221f90613409565b801561226c5780601f106122415761010080835404028352916020019161226c565b820191906000526020600020905b81548152906001019060200180831161224f57829003601f168201915b5050505050815260200160088201805461228590613409565b80601f01602080910402602001604051908101604052809291908181526020018280546122b190613409565b80156122fe5780601f106122d3576101008083540402835291602001916122fe565b820191906000526020600020905b8154815290600101906020018083116122e157829003601f168201915b505050505081525050828481518110612340577f4e487b7100000000000000000000000000000000000000000000000000000000600052603260045260246000fd5b602002602001018190525082806123569061343b565b9350505b80806123659061343b565b915050611d54565b508181528092505050919050565b61238361295f565b6000600190505b600054811161295857826040516020016123a49190613116565b60405160208183030381529060405280519060200120600260008381526020019081526020016000206000016040516020016123e0919061312d565b60405160208183030381529060405280519060200120141561294557600260008281526020019081526020016000206040518061012001604052908160008201805461242b90613409565b80601f016020809104026020016040519081016040528092919081815260200182805461245790613409565b80156124a45780601f10612479576101008083540402835291602001916124a4565b820191906000526020600020905b81548152906001019060200180831161248757829003601f168201915b505050505081526020016001820180546124bd90613409565b80601f01602080910402602001604051908101604052809291908181526020018280546124e990613409565b80156125365780601f1061250b57610100808354040283529160200191612536565b820191906000526020600020905b81548152906001019060200180831161251957829003601f168201915b5050505050815260200160028201805461254f90613409565b80601f016020809104026020016040519081016040528092919081815260200182805461257b90613409565b80156125c85780601f1061259d576101008083540402835291602001916125c8565b820191906000526020600020905b8154815290600101906020018083116125ab57829003601f168201915b505050505081526020016003820180546125e190613409565b80601f016020809104026020016040519081016040528092919081815260200182805461260d90613409565b801561265a5780601f1061262f5761010080835404028352916020019161265a565b820191906000526020600020905b81548152906001019060200180831161263d57829003601f168201915b5050505050815260200160048201805461267390613409565b80601f016020809104026020016040519081016040528092919081815260200182805461269f90613409565b80156126ec5780601f106126c1576101008083540402835291602001916126ec565b820191906000526020600020905b8154815290600101906020018083116126cf57829003601f168201915b5050505050815260200160058201805461270590613409565b80601f016020809104026020016040519081016040528092919081815260200182805461273190613409565b801561277e5780601f106127535761010080835404028352916020019161277e565b820191906000526020600020905b81548152906001019060200180831161276157829003601f168201915b5050505050815260200160068201805461279790613409565b80601f01602080910402602001604051908101604052809291908181526020018280546127c390613409565b80156128105780601f106127e557610100808354040283529160200191612810565b820191906000526020600020905b8154815290600101906020018083116127f357829003601f168201915b5050505050815260200160078201805461282990613409565b80601f016020809104026020016040519081016040528092919081815260200182805461285590613409565b80156128a25780601f10612877576101008083540402835291602001916128a2565b820191906000526020600020905b81548152906001019060200180831161288557829003601f168201915b505050505081526020016008820180546128bb90613409565b80601f01602080910402602001604051908101604052809291908181526020018280546128e790613409565b80156129345780601f1061290957610100808354040283529160200191612934565b820191906000526020600020905b81548152906001019060200180831161291757829003601f168201915b50505050508152505091505061295a565b80806129509061343b565b91505061238a565b505b919050565b6040518061012001604052806060815260200160608152602001606081526020016060815260200160608152602001606081526020016060815260200160608152602001606081525090565b8280546129b790613409565b90600052602060002090601f0160209004810192826129d95760008555612a20565b82601f106129f257805160ff1916838001178555612a20565b82800160010185558215612a20579182015b82811115612a1f578251825591602001919060010190612a04565b5b509050612a2d9190612a31565b5090565b5b80821115612a4a576000816000905550600101612a32565b5090565b6000612a61612a5c846132fb565b6132ca565b905082815260208101848484011115612a7957600080fd5b612a848482856133c7565b509392505050565b600082601f830112612a9d57600080fd5b8135612aad848260208601612a4e565b91505092915050565b600081359050612ac581613522565b92915050565b600060208284031215612add57600080fd5b600082013567ffffffffffffffff811115612af757600080fd5b612b0384828501612a8c565b91505092915050565b60008060008060008060008060006101208a8c031215612b2b57600080fd5b60008a013567ffffffffffffffff811115612b4557600080fd5b612b518c828d01612a8c565b99505060208a013567ffffffffffffffff811115612b6e57600080fd5b612b7a8c828d01612a8c565b98505060408a013567ffffffffffffffff811115612b9757600080fd5b612ba38c828d01612a8c565b97505060608a013567ffffffffffffffff811115612bc057600080fd5b612bcc8c828d01612a8c565b96505060808a013567ffffffffffffffff811115612be957600080fd5b612bf58c828d01612a8c565b95505060a08a013567ffffffffffffffff811115612c1257600080fd5b612c1e8c828d01612a8c565b94505060c08a013567ffffffffffffffff811115612c3b57600080fd5b612c478c828d01612a8c565b93505060e08a013567ffffffffffffffff811115612c6457600080fd5b612c708c828d01612a8c565b9250506101008a013567ffffffffffffffff811115612c8e57600080fd5b612c9a8c828d01612a8c565b9150509295985092959850929598565b600060208284031215612cbc57600080fd5b6000612cca84828501612ab6565b91505092915050565b6000612cdf8383612f0d565b905092915050565b6000612cf282613350565b612cfc8185613373565b935083602082028501612d0e8561332b565b8060005b85811015612d4a5784840389528151612d2b8582612cd3565b9450612d3683613366565b925060208a01995050600181019050612d12565b50829750879550505050505092915050565b612d65816133b1565b82525050565b6000612d768261335b565b612d808185613384565b9350612d908185602086016133d6565b612d9981613511565b840191505092915050565b6000612daf8261335b565b612db98185613395565b9350612dc98185602086016133d6565b612dd281613511565b840191505092915050565b6000612de88261335b565b612df281856133a6565b9350612e028185602086016133d6565b80840191505092915050565b60008154612e1b81613409565b612e2581866133a6565b94506001821660008114612e405760018114612e5157612e84565b60ff19831686528186019350612e84565b612e5a8561333b565b60005b83811015612e7c57815481890152600182019150602081019050612e5d565b838801955050505b50505092915050565b6000612e9a601583613395565b91507f6469706c6f6d6520616c726561647920657869737400000000000000000000006000830152602082019050919050565b6000612eda601783613395565b91507f74686520626c6f636b20646f65736e27742061646465640000000000000000006000830152602082019050919050565b6000610120830160008301518482036000860152612f2b8282612d6b565b91505060208301518482036020860152612f458282612d6b565b91505060408301518482036040860152612f5f8282612d6b565b91505060608301518482036060860152612f798282612d6b565b91505060808301518482036080860152612f938282612d6b565b91505060a083015184820360a0860152612fad8282612d6b565b91505060c083015184820360c0860152612fc78282612d6b565b91505060e083015184820360e0860152612fe18282612d6b565b915050610100830151848203610100860152612ffd8282612d6b565b9150508091505092915050565b60006101208301600083015184820360008601526130288282612d6b565b915050602083015184820360208601526130428282612d6b565b9150506040830151848203604086015261305c8282612d6b565b915050606083015184820360608601526130768282612d6b565b915050608083015184820360808601526130908282612d6b565b91505060a083015184820360a08601526130aa8282612d6b565b91505060c083015184820360c08601526130c48282612d6b565b91505060e083015184820360e08601526130de8282612d6b565b9150506101008301518482036101008601526130fa8282612d6b565b9150508091505092915050565b613110816133bd565b82525050565b60006131228284612ddd565b915081905092915050565b60006131398284612e0e565b915081905092915050565b6000602082019050818103600083015261315e8184612ce7565b905092915050565b600060208201905061317b6000830184612d5c565b92915050565b600061012082019050818103600083015261319c818c612da4565b905081810360208301526131b0818b612da4565b905081810360408301526131c4818a612da4565b905081810360608301526131d88189612da4565b905081810360808301526131ec8188612da4565b905081810360a08301526132008187612da4565b905081810360c08301526132148186612da4565b905081810360e08301526132288185612da4565b905081810361010083015261323d8184612da4565b90509a9950505050505050505050565b6000602082019050818103600083015261326681612e8d565b9050919050565b6000602082019050818103600083015261328681612ecd565b9050919050565b600060208201905081810360008301526132a7818461300a565b905092915050565b60006020820190506132c46000830184613107565b92915050565b6000604051905081810181811067ffffffffffffffff821117156132f1576132f06134e2565b5b8060405250919050565b600067ffffffffffffffff821115613316576133156134e2565b5b601f19601f8301169050602081019050919050565b6000819050602082019050919050565b60008190508160005260206000209050919050565b600081519050919050565b600081519050919050565b6000602082019050919050565b600082825260208201905092915050565b600082825260208201905092915050565b600082825260208201905092915050565b600081905092915050565b60008115159050919050565b6000819050919050565b82818337600083830152505050565b60005b838110156133f45780820151818401526020810190506133d9565b83811115613403576000848401525b50505050565b6000600282049050600182168061342157607f821691505b60208210811415613435576134346134b3565b5b50919050565b6000613446826133bd565b91507fffffffffffffffffffffffffffffffffffffffffffffffffffffffffffffffff82141561347957613478613484565b5b600182019050919050565b7f4e487b7100000000000000000000000000000000000000000000000000000000600052601160045260246000fd5b7f4e487b7100000000000000000000000000000000000000000000000000000000600052602260045260246000fd5b7f4e487b7100000000000000000000000000000000000000000000000000000000600052604160045260246000fd5b6000601f19601f8301169050919050565b61352b816133bd565b811461353657600080fd5b5056fea2646970667358221220eceb12cfa885d014328a18599bd0f1365c0efc77bc28989bba414c2cdeb788a364736f6c63430008000033",
  "immutableReferences": {},
  "source": "// SPDX-License-Identifier: MIT\r\npragma solidity >=0.7.0 <0.9.0;\r\n\r\ncontract Diplomes {\r\n    uint public countDiplome = 0;\r\n    address owner;\r\n    // string value;\r\n    // State public myState;\r\n    struct diplome {\r\n        string idDiplom;\r\n        string FullName;\r\n        string cin;\r\n        string cne;\r\n        string dateNaissance;\r\n        string sector;\r\n        string diplomaType;\r\n        string section;\r\n        string institution;\r\n    }\r\n\r\n    // modifier onlyOwner() {\r\n    //     require(msg.sender == owner);\r\n    //     _;\r\n    // }\r\n    mapping(uint => diplome) public diplomes;\r\n\r\n    constructor() {\r\n        owner = msg.sender;\r\n    }\r\n\r\n    function checkDiplome(string memory _cne) public view returns (bool) {\r\n        bool test = true;\r\n        for (uint i = 1; i <= countDiplome; i++) {\r\n            if (\r\n                keccak256(abi.encodePacked(diplomes[i].cne)) ==\r\n                keccak256(abi.encodePacked(_cne))\r\n            ) {\r\n                test = false;\r\n            }\r\n        }\r\n        return test;\r\n    }\r\n\r\n    function addDiplome(\r\n        string memory _id,\r\n        string memory _name,\r\n        string memory _cin,\r\n        string memory _cne,\r\n        string memory _dateNaissance,\r\n        string memory _sector,\r\n        string memory _type,\r\n        string memory _section,\r\n        string memory _insti\r\n    ) public {\r\n        // if (!checkDiplome(_cin)) {\r\n        //     return false;\r\n        // }\r\n        require(checkDiplome(_cne), \"diplome already exist\");\r\n        countDiplome++;\r\n        diplomes[countDiplome] = diplome(\r\n            _id,\r\n            _name,\r\n            _cin,\r\n            _cne,\r\n            _dateNaissance,\r\n            _sector,\r\n            _type,\r\n            _section,\r\n            _insti\r\n        );\r\n        require(\r\n            keccak256(abi.encodePacked(diplomes[countDiplome].cin)) ==\r\n                keccak256(abi.encodePacked(_cin)),\r\n            \"the block doesn't added\"\r\n        );\r\n    }\r\n\r\n    function searchByid(\r\n        string memory _id\r\n    ) public view returns (diplome memory) {\r\n        for (uint i = 1; i <= countDiplome; i++) {\r\n            if (\r\n                keccak256(abi.encodePacked(diplomes[i].idDiplom)) ==\r\n                keccak256(abi.encodePacked(_id))\r\n            ) {\r\n                return diplomes[i];\r\n            }\r\n        }\r\n    }\r\n\r\n    function searchByCin(\r\n        string memory _cin\r\n    ) public view returns (diplome memory) {\r\n        for (uint i = 1; i <= countDiplome; i++) {\r\n            if (\r\n                keccak256(abi.encodePacked(diplomes[i].cin)) ==\r\n                keccak256(abi.encodePacked(_cin))\r\n            ) {\r\n                return diplomes[i];\r\n            }\r\n        }\r\n    }\r\n\r\n    function searchByCne(\r\n        string memory _cne\r\n    ) public view returns (diplome memory) {\r\n        for (uint i = 1; i <= countDiplome; i++) {\r\n            if (\r\n                keccak256(abi.encodePacked(diplomes[i].cne)) ==\r\n                keccak256(abi.encodePacked(_cne))\r\n            ) {\r\n                return diplomes[i];\r\n            }\r\n        }\r\n    }\r\n\r\n    function searchByName(\r\n        string memory _name\r\n    ) public view returns (diplome[] memory) {\r\n        uint count = 0;\r\n        diplome[] memory twinsDiplome = new diplome[](countDiplome);\r\n        for (uint i = 1; i <= countDiplome; i++) {\r\n            if (\r\n                keccak256(abi.encodePacked(diplomes[i].FullName)) ==\r\n                keccak256(abi.encodePacked(_name))\r\n            ) {\r\n                twinsDiplome[count] = diplomes[i];\r\n                count++;\r\n            }\r\n        }\r\n        assembly {\r\n            mstore(twinsDiplome, count)\r\n        }\r\n        return twinsDiplome;\r\n    }\r\n\r\n    function searchBySection(\r\n        string memory _section\r\n    ) public view returns (diplome[] memory) {\r\n        uint count = 0;\r\n        diplome[] memory twinsDiplome = new diplome[](countDiplome);\r\n        for (uint i = 1; i <= countDiplome; i++) {\r\n            if (\r\n                keccak256(abi.encodePacked(diplomes[i].section)) ==\r\n                keccak256(abi.encodePacked(_section))\r\n            ) {\r\n                twinsDiplome[count] = diplomes[i];\r\n                count++;\r\n            }\r\n        }\r\n        assembly {\r\n            mstore(twinsDiplome, count)\r\n        }\r\n        return twinsDiplome;\r\n    }\r\n}\r\n",
  "sourcePath": "C:\\Users\\amal\\Desktop\\PFE\\projectv1\\contracts\\Diplomes.sol",
  "compiler": {
    "name": "solc",
    "version": "0.8.0+commit.c7dfd78e.Emscripten.clang"
  },
  "schemaVersion": "3.4.13",
  "updatedAt": "2023-06-11T14:02:33.851Z",
  "devdoc": {
    "kind": "dev",
    "methods": {},
    "version": 1
  },
  "userdoc": {
    "kind": "user",
    "methods": {},
    "version": 1
  }
}